{
  "_format": "hh-sol-artifact-1",
  "contractName": "Article",
  "sourceName": "contracts/Article.sol",
  "abi": [
    {
      "inputs": [],
      "stateMutability": "payable",
      "type": "constructor"
    },
    {
      "anonymous": false,
      "inputs": [
        {
          "indexed": true,
          "internalType": "address",
          "name": "from",
          "type": "address"
        },
        {
          "indexed": true,
          "internalType": "string",
          "name": "newsLang",
          "type": "string"
        },
        {
          "indexed": true,
          "internalType": "uint32",
          "name": "tag",
          "type": "uint32"
        },
        {
          "indexed": false,
          "internalType": "string",
          "name": "headline",
          "type": "string"
        },
        {
          "indexed": false,
          "internalType": "string",
          "name": "content",
          "type": "string"
        },
        {
          "indexed": false,
          "internalType": "uint256",
          "name": "timestamp",
          "type": "uint256"
        }
      ],
      "name": "post",
      "type": "event"
    },
    {
      "anonymous": false,
      "inputs": [
        {
          "indexed": false,
          "internalType": "uint32",
          "name": "tag",
          "type": "uint32"
        },
        {
          "indexed": false,
          "internalType": "uint256",
          "name": "id",
          "type": "uint256"
        },
        {
          "indexed": false,
          "internalType": "uint256",
          "name": "penalty",
          "type": "uint256"
        }
      ],
      "name": "refuteArticle",
      "type": "event"
    },
    {
      "anonymous": false,
      "inputs": [
        {
          "indexed": true,
          "internalType": "uint256",
          "name": "id",
          "type": "uint256"
        },
        {
          "components": [
            {
              "internalType": "uint256",
              "name": "id",
              "type": "uint256"
            },
            {
              "internalType": "bool",
              "name": "isReportPost",
              "type": "bool"
            },
            {
              "internalType": "bool",
              "name": "truth",
              "type": "bool"
            },
            {
              "internalType": "address payable",
              "name": "from",
              "type": "address"
            },
            {
              "internalType": "string",
              "name": "newsLang",
              "type": "string"
            },
            {
              "internalType": "uint32",
              "name": "tag",
              "type": "uint32"
            },
            {
              "internalType": "string",
              "name": "headline",
              "type": "string"
            },
            {
              "internalType": "string",
              "name": "content",
              "type": "string"
            },
            {
              "internalType": "uint256",
              "name": "timestamp",
              "type": "uint256"
            },
            {
              "internalType": "uint256",
              "name": "rating",
              "type": "uint256"
            },
            {
              "internalType": "uint32",
              "name": "interactions",
              "type": "uint32"
            },
            {
              "internalType": "uint256[]",
              "name": "reports",
              "type": "uint256[]"
            }
          ],
          "indexed": false,
          "internalType": "struct Article.Post",
          "name": "post",
          "type": "tuple"
        }
      ],
      "name": "viewPost",
      "type": "event"
    },
    {
      "stateMutability": "payable",
      "type": "fallback"
    },
    {
      "inputs": [
        {
          "internalType": "uint256",
          "name": "",
          "type": "uint256"
        },
        {
          "internalType": "uint256",
          "name": "",
          "type": "uint256"
        }
      ],
      "name": "Posts",
      "outputs": [
        {
          "internalType": "uint256",
          "name": "id",
          "type": "uint256"
        },
        {
          "internalType": "bool",
          "name": "isReportPost",
          "type": "bool"
        },
        {
          "internalType": "bool",
          "name": "truth",
          "type": "bool"
        },
        {
          "internalType": "address payable",
          "name": "from",
          "type": "address"
        },
        {
          "internalType": "string",
          "name": "newsLang",
          "type": "string"
        },
        {
          "internalType": "uint32",
          "name": "tag",
          "type": "uint32"
        },
        {
          "internalType": "string",
          "name": "headline",
          "type": "string"
        },
        {
          "internalType": "string",
          "name": "content",
          "type": "string"
        },
        {
          "internalType": "uint256",
          "name": "timestamp",
          "type": "uint256"
        },
        {
          "internalType": "uint256",
          "name": "rating",
          "type": "uint256"
        },
        {
          "internalType": "uint32",
          "name": "interactions",
          "type": "uint32"
        }
      ],
      "stateMutability": "view",
      "type": "function"
    },
    {
      "inputs": [
        {
          "internalType": "uint256",
          "name": "",
          "type": "uint256"
        }
      ],
      "name": "Reports",
      "outputs": [
        {
          "internalType": "uint256",
          "name": "id",
          "type": "uint256"
        },
        {
          "internalType": "bool",
          "name": "isArchived",
          "type": "bool"
        },
        {
          "internalType": "uint8",
          "name": "reportPostTag",
          "type": "uint8"
        },
        {
          "internalType": "uint256",
          "name": "reportPostID",
          "type": "uint256"
        }
      ],
      "stateMutability": "view",
      "type": "function"
    },
    {
      "inputs": [
        {
          "internalType": "uint256",
          "name": "id",
          "type": "uint256"
        }
      ],
      "name": "confirmReport",
      "outputs": [],
      "stateMutability": "nonpayable",
      "type": "function"
    },
    {
      "inputs": [
        {
          "internalType": "uint256",
          "name": "id",
          "type": "uint256"
        },
        {
          "internalType": "uint32",
          "name": "tag",
          "type": "uint32"
        }
      ],
      "name": "getPostByID",
      "outputs": [
        {
          "components": [
            {
              "internalType": "uint256",
              "name": "id",
              "type": "uint256"
            },
            {
              "internalType": "bool",
              "name": "isReportPost",
              "type": "bool"
            },
            {
              "internalType": "bool",
              "name": "truth",
              "type": "bool"
            },
            {
              "internalType": "address payable",
              "name": "from",
              "type": "address"
            },
            {
              "internalType": "string",
              "name": "newsLang",
              "type": "string"
            },
            {
              "internalType": "uint32",
              "name": "tag",
              "type": "uint32"
            },
            {
              "internalType": "string",
              "name": "headline",
              "type": "string"
            },
            {
              "internalType": "string",
              "name": "content",
              "type": "string"
            },
            {
              "internalType": "uint256",
              "name": "timestamp",
              "type": "uint256"
            },
            {
              "internalType": "uint256",
              "name": "rating",
              "type": "uint256"
            },
            {
              "internalType": "uint32",
              "name": "interactions",
              "type": "uint32"
            },
            {
              "internalType": "uint256[]",
              "name": "reports",
              "type": "uint256[]"
            }
          ],
          "internalType": "struct Article.Post",
          "name": "result",
          "type": "tuple"
        }
      ],
      "stateMutability": "view",
      "type": "function"
    },
    {
      "inputs": [
        {
          "internalType": "uint32",
          "name": "tag",
          "type": "uint32"
        }
      ],
      "name": "getPostByTag",
      "outputs": [
        {
          "components": [
            {
              "internalType": "uint256",
              "name": "id",
              "type": "uint256"
            },
            {
              "internalType": "bool",
              "name": "isReportPost",
              "type": "bool"
            },
            {
              "internalType": "bool",
              "name": "truth",
              "type": "bool"
            },
            {
              "internalType": "address payable",
              "name": "from",
              "type": "address"
            },
            {
              "internalType": "string",
              "name": "newsLang",
              "type": "string"
            },
            {
              "internalType": "uint32",
              "name": "tag",
              "type": "uint32"
            },
            {
              "internalType": "string",
              "name": "headline",
              "type": "string"
            },
            {
              "internalType": "string",
              "name": "content",
              "type": "string"
            },
            {
              "internalType": "uint256",
              "name": "timestamp",
              "type": "uint256"
            },
            {
              "internalType": "uint256",
              "name": "rating",
              "type": "uint256"
            },
            {
              "internalType": "uint32",
              "name": "interactions",
              "type": "uint32"
            },
            {
              "internalType": "uint256[]",
              "name": "reports",
              "type": "uint256[]"
            }
          ],
          "internalType": "struct Article.Post",
          "name": "",
          "type": "tuple"
        }
      ],
      "stateMutability": "nonpayable",
      "type": "function"
    },
    {
      "inputs": [
        {
          "internalType": "address payable",
          "name": "from",
          "type": "address"
        },
        {
          "internalType": "string",
          "name": "newsLang",
          "type": "string"
        },
        {
          "internalType": "uint32",
          "name": "tag",
          "type": "uint32"
        },
        {
          "internalType": "string",
          "name": "headline",
          "type": "string"
        },
        {
          "internalType": "string",
          "name": "content",
          "type": "string"
        },
        {
          "internalType": "uint256",
          "name": "rating",
          "type": "uint256"
        }
      ],
      "name": "postArticle",
      "outputs": [],
      "stateMutability": "nonpayable",
      "type": "function"
    },
    {
      "inputs": [
        {
          "internalType": "uint256",
          "name": "",
          "type": "uint256"
        }
      ],
      "name": "postCount",
      "outputs": [
        {
          "internalType": "uint256",
          "name": "",
          "type": "uint256"
        }
      ],
      "stateMutability": "view",
      "type": "function"
    },
    {
      "inputs": [
        {
          "internalType": "uint256",
          "name": "id",
          "type": "uint256"
        }
      ],
      "name": "refuteReport",
      "outputs": [],
      "stateMutability": "nonpayable",
      "type": "function"
    },
    {
      "inputs": [
        {
          "internalType": "uint8",
          "name": "reportPostTag",
          "type": "uint8"
        },
        {
          "internalType": "uint256",
          "name": "reportPostID",
          "type": "uint256"
        },
        {
          "internalType": "address payable",
          "name": "from",
          "type": "address"
        },
        {
          "internalType": "string",
          "name": "newsLang",
          "type": "string"
        },
        {
          "internalType": "string",
          "name": "headline",
          "type": "string"
        },
        {
          "internalType": "string",
          "name": "content",
          "type": "string"
        },
        {
          "internalType": "uint256",
          "name": "rating",
          "type": "uint256"
        }
      ],
      "name": "reportArticle",
      "outputs": [],
      "stateMutability": "nonpayable",
      "type": "function"
    },
    {
      "inputs": [],
      "name": "reportCount",
      "outputs": [
        {
          "internalType": "uint256",
          "name": "",
          "type": "uint256"
        }
      ],
      "stateMutability": "view",
      "type": "function"
    },
    {
      "inputs": [
        {
          "internalType": "uint256",
          "name": "id",
          "type": "uint256"
        }
      ],
      "name": "viewConfirmations",
      "outputs": [
        {
          "internalType": "address[]",
          "name": "",
          "type": "address[]"
        }
      ],
      "stateMutability": "view",
      "type": "function"
    },
    {
      "inputs": [
        {
          "internalType": "uint256",
          "name": "id",
          "type": "uint256"
        },
        {
          "internalType": "uint32",
          "name": "tag",
          "type": "uint32"
        }
      ],
      "name": "withdraw",
      "outputs": [],
      "stateMutability": "payable",
      "type": "function"
    },
    {
      "stateMutability": "payable",
      "type": "receive"
    }
  ],
  "bytecode": "0x60806040526000600855620f424060095564e8d4a51000600a55336000806101000a81548173ffffffffffffffffffffffffffffffffffffffff021916908373ffffffffffffffffffffffffffffffffffffffff1602179055506138ef806100686000396000f3fe6080604052600436106100ab5760003560e01c8063467f2cd811610064578063467f2cd8146101f25780636145d1b714610232578063bd0257491461024e578063e6876ecc14610277578063f25060d2146102a0578063f86c27d3146102dd576100b2565b80630e07f901146100b45780630f6b75d6146100dd5780630fabb8a81461011a578063185c6f8414610143578063284837881461016e57806345c55e47146101ab576100b2565b366100b257005b005b3480156100c057600080fd5b506100db60048036038101906100d691906124a7565b61031a565b005b3480156100e957600080fd5b5061010460048036038101906100ff91906124a7565b610565565b60405161011191906125c4565b60405180910390f35b34801561012657600080fd5b50610141600480360381019061013c91906127a6565b610609565b005b34801561014f57600080fd5b50610158610992565b6040516101659190612896565b60405180910390f35b34801561017a57600080fd5b50610195600480360381019061019091906124a7565b610998565b6040516101a29190612896565b60405180910390f35b3480156101b757600080fd5b506101d260048036038101906101cd91906128b1565b6109b3565b6040516101e99b9a999897969594939291906129a9565b60405180910390f35b3480156101fe57600080fd5b50610219600480360381019061021491906124a7565b610c0f565b6040516102299493929190612a85565b60405180910390f35b61024c60048036038101906102479190612aca565b610c59565b005b34801561025a57600080fd5b5061027560048036038101906102709190612b36565b61113a565b005b34801561028357600080fd5b5061029e600480360381019061029991906124a7565b611617565b005b3480156102ac57600080fd5b506102c760048036038101906102c29190612aca565b6119fd565b6040516102d49190612e7a565b60405180910390f35b3480156102e957600080fd5b5061030460048036038101906102ff9190612e9c565b611db3565b6040516103119190612e7a565b60405180910390f35b6103be33601260008481526020019081526020016000206004018054806020026020016040519081016040528092919081815260200182805480156103b457602002820191906000526020600020905b8160009054906101000a900473ffffffffffffffffffffffffffffffffffffffff1673ffffffffffffffffffffffffffffffffffffffff168152602001906001019080831161036a575b505050505061224f565b156103c857600080fd5b60126000828152602001908152602001600020600401339080600181540180825580915050600190039060005260206000200160009091909190916101000a81548173ffffffffffffffffffffffffffffffffffffffff021916908373ffffffffffffffffffffffffffffffffffffffff160217905550600a601260008381526020019081526020016000206004018054905003610562576000600b60006007811061047757610476612ec9565b5b01600083815260200190815260200160002060080160009054906101000a900463ffffffff1663ffffffff16600a546104b09190612f27565b90507fec7a6d51f9e94386ae3c020b954f8b4aabd4ec48d601a0ec75197fc24a74b602600083836040516104e693929190612fae565b60405180910390a16000600b60006007811061050557610504612ec9565b5b01600084815260200190815260200160002060010160016101000a81548160ff02191690831515021790555060016012600084815260200190815260200160002060010160006101000a81548160ff021916908315150217905550505b50565b6060601260008381526020019081526020016000206003018054806020026020016040519081016040528092919081815260200182805480156105fd57602002820191906000526020600020905b8160009054906101000a900473ffffffffffffffffffffffffffffffffffffffff1673ffffffffffffffffffffffffffffffffffffffff16815260200190600101908083116105b3575b50505050509050919050565b600763ffffffff168463ffffffff1610801561062c575060008463ffffffff1610155b61066b576040517f08c379a000000000000000000000000000000000000000000000000000000000815260040161066290613031565b60405180910390fd5b60405180610180016040528060018663ffffffff166007811061069157610690612ec9565b5b015481526020016000151581526020016001151581526020018773ffffffffffffffffffffffffffffffffffffffff1681526020018681526020018563ffffffff168152602001848152602001838152602001428152602001828152602001600063ffffffff168152602001600a67ffffffffffffffff8111156107185761071761263f565b5b6040519080825280602002602001820160405280156107465781602001602082028036833780820191505090505b50815250600b8563ffffffff166007811061076457610763612ec9565b5b01600060018763ffffffff166007811061078157610780612ec9565b5b015481526020019081526020016000206000820151816000015560208201518160010160006101000a81548160ff02191690831515021790555060408201518160010160016101000a81548160ff02191690831515021790555060608201518160010160026101000a81548173ffffffffffffffffffffffffffffffffffffffff021916908373ffffffffffffffffffffffffffffffffffffffff16021790555060808201518160020190816108379190613253565b5060a08201518160030160006101000a81548163ffffffff021916908363ffffffff16021790555060c08201518160040190816108749190613253565b5060e082015181600501908161088a9190613253565b50610100820151816006015561012082015181600701556101408201518160080160006101000a81548163ffffffff021916908363ffffffff1602179055506101608201518160090190805190602001906108e69291906122e2565b5090505060018463ffffffff166007811061090457610903612ec9565b5b01600081548092919061091690613325565b91905055508363ffffffff168560405161093091906133a9565b60405180910390208773ffffffffffffffffffffffffffffffffffffffff167f63f7de17f3a4d05e1bec1ecec8b9ed9736800f80c91fd8fed341f75f76d89a7c868642604051610982939291906133c0565b60405180910390a4505050505050565b60085481565b600181600781106109a857600080fd5b016000915090505481565b600b82600781106109c357600080fd5b01602052806000526040600020600091509150508060000154908060010160009054906101000a900460ff16908060010160019054906101000a900460ff16908060010160029054906101000a900473ffffffffffffffffffffffffffffffffffffffff1690806002018054610a3890613080565b80601f0160208091040260200160405190810160405280929190818152602001828054610a6490613080565b8015610ab15780601f10610a8657610100808354040283529160200191610ab1565b820191906000526020600020905b815481529060010190602001808311610a9457829003601f168201915b5050505050908060030160009054906101000a900463ffffffff1690806004018054610adc90613080565b80601f0160208091040260200160405190810160405280929190818152602001828054610b0890613080565b8015610b555780601f10610b2a57610100808354040283529160200191610b55565b820191906000526020600020905b815481529060010190602001808311610b3857829003601f168201915b505050505090806005018054610b6a90613080565b80601f0160208091040260200160405190810160405280929190818152602001828054610b9690613080565b8015610be35780601f10610bb857610100808354040283529160200191610be3565b820191906000526020600020905b815481529060010190602001808311610bc657829003601f168201915b5050505050908060060154908060070154908060080160009054906101000a900463ffffffff1690508b565b60126020528060005260406000206000915090508060000154908060010160009054906101000a900460ff16908060010160019054906101000a900460ff16908060020154905084565b6000600b8263ffffffff1660078110610c7557610c74612ec9565b5b01600084815260200190815260200160002060405180610180016040529081600082015481526020016001820160009054906101000a900460ff161515151581526020016001820160019054906101000a900460ff161515151581526020016001820160029054906101000a900473ffffffffffffffffffffffffffffffffffffffff1673ffffffffffffffffffffffffffffffffffffffff1673ffffffffffffffffffffffffffffffffffffffff168152602001600282018054610d3990613080565b80601f0160208091040260200160405190810160405280929190818152602001828054610d6590613080565b8015610db25780601f10610d8757610100808354040283529160200191610db2565b820191906000526020600020905b815481529060010190602001808311610d9557829003601f168201915b505050505081526020016003820160009054906101000a900463ffffffff1663ffffffff1663ffffffff168152602001600482018054610df190613080565b80601f0160208091040260200160405190810160405280929190818152602001828054610e1d90613080565b8015610e6a5780601f10610e3f57610100808354040283529160200191610e6a565b820191906000526020600020905b815481529060010190602001808311610e4d57829003601f168201915b50505050508152602001600582018054610e8390613080565b80601f0160208091040260200160405190810160405280929190818152602001828054610eaf90613080565b8015610efc5780601f10610ed157610100808354040283529160200191610efc565b820191906000526020600020905b815481529060010190602001808311610edf57829003601f168201915b5050505050815260200160068201548152602001600782015481526020016008820160009054906101000a900463ffffffff1663ffffffff1663ffffffff16815260200160098201805480602002602001604051908101604052809291908181526020018280548015610f8e57602002820191906000526020600020905b815481526020019060010190808311610f7a575b50505050508152505090503373ffffffffffffffffffffffffffffffffffffffff16816060015173ffffffffffffffffffffffffffffffffffffffff161461100b576040517f08c379a000000000000000000000000000000000000000000000000000000000815260040161100290613477565b60405180910390fd5b600b8263ffffffff166007811061102557611024612ec9565b5b01600084815260200190815260200160002060010160019054906101000a900460ff16611087576040517f08c379a000000000000000000000000000000000000000000000000000000000815260040161107e906134e3565b60405180910390fd5b600b8263ffffffff16600781106110a1576110a0612ec9565b5b01600084815260200190815260200160002060010160029054906101000a900473ffffffffffffffffffffffffffffffffffffffff1673ffffffffffffffffffffffffffffffffffffffff166108fc60095483610140015163ffffffff166111099190612f27565b9081150290604051600060405180830381858888f19350505050158015611134573d6000803e3d6000fd5b50505050565b630510ff408111611180576040517f08c379a00000000000000000000000000000000000000000000000000000000081526004016111779061354f565b60405180910390fd5b60405180610180016040528060085481526020016001151581526020016001151581526020018673ffffffffffffffffffffffffffffffffffffffff168152602001858152602001600063ffffffff168152602001848152602001838152602001428152602001828152602001600063ffffffff168152602001600a67ffffffffffffffff8111156112155761121461263f565b5b6040519080825280602002602001820160405280156112435781602001602082028036833780820191505090505b50815250600b60006007811061125c5761125b612ec9565b5b01600060085481526020019081526020016000206000820151816000015560208201518160010160006101000a81548160ff02191690831515021790555060408201518160010160016101000a81548160ff02191690831515021790555060608201518160010160026101000a81548173ffffffffffffffffffffffffffffffffffffffff021916908373ffffffffffffffffffffffffffffffffffffffff16021790555060808201518160020190816113169190613253565b5060a08201518160030160006101000a81548163ffffffff021916908363ffffffff16021790555060c08201518160040190816113539190613253565b5060e08201518160050190816113699190613253565b50610100820151816006015561012082015181600701556101408201518160080160006101000a81548163ffffffff021916908363ffffffff1602179055506101608201518160090190805190602001906113c59291906122e2565b509050506040518060c0016040528060085481526020016000151581526020018860ff168152602001878152602001600067ffffffffffffffff81111561140f5761140e61263f565b5b60405190808252806020026020018201604052801561143d5781602001602082028036833780820191505090505b508152602001600067ffffffffffffffff81111561145e5761145d61263f565b5b60405190808252806020026020018201604052801561148c5781602001602082028036833780820191505090505b508152506012600060085481526020019081526020016000206000820151816000015560208201518160010160006101000a81548160ff02191690831515021790555060408201518160010160016101000a81548160ff021916908360ff16021790555060608201518160020155608082015181600301908051906020019061151692919061232f565b5060a082015181600401908051906020019061153392919061232f565b50905050600b8760ff166007811061154e5761154d612ec9565b5b01600087815260200190815260200160002060090160085490806001815401808255809150506001900390600052602060002001600090919091909150556008600081548092919061159f90613325565b91905055506000846040516115b491906133a9565b60405180910390208673ffffffffffffffffffffffffffffffffffffffff167f63f7de17f3a4d05e1bec1ecec8b9ed9736800f80c91fd8fed341f75f76d89a7c868642604051611606939291906133c0565b60405180910390a450505050505050565b600b60006007811061162c5761162b612ec9565b5b01600082815260200190815260200160002060010160029054906101000a900473ffffffffffffffffffffffffffffffffffffffff1673ffffffffffffffffffffffffffffffffffffffff163373ffffffffffffffffffffffffffffffffffffffff160361169957600080fd5b61173d336012600084815260200190815260200160002060030180548060200260200160405190810160405280929190818152602001828054801561173357602002820191906000526020600020905b8160009054906101000a900473ffffffffffffffffffffffffffffffffffffffff1673ffffffffffffffffffffffffffffffffffffffff16815260200190600101908083116116e9575b505050505061224f565b1561177d576040517f08c379a0000000000000000000000000000000000000000000000000000000008152600401611774906135bb565b60405180910390fd5b6012600082815260200190815260200160002060010160009054906101000a900460ff16156117e1576040517f08c379a00000000000000000000000000000000000000000000000000000000081526004016117d890613627565b60405180910390fd5b60126000828152602001908152602001600020600301339080600181540180825580915050600190039060005260206000200160009091909190916101000a81548173ffffffffffffffffffffffffffffffffffffffff021916908373ffffffffffffffffffffffffffffffffffffffff160217905550600a6012600083815260200190815260200160002060030180549050036119fa576000600b6012600084815260200190815260200160002060010160019054906101000a900460ff1660ff16600781106118b5576118b4612ec9565b5b0160006012600085815260200190815260200160002060020154815260200190815260200160002060080160009054906101000a900463ffffffff1663ffffffff16600a546119049190612f27565b90507fec7a6d51f9e94386ae3c020b954f8b4aabd4ec48d601a0ec75197fc24a74b6026012600084815260200190815260200160002060010160019054906101000a900460ff1660126000858152602001908152602001600020600201548360405161197293929190613678565b60405180910390a16000600b6012600085815260200190815260200160002060010160019054906101000a900460ff1660ff16600781106119b6576119b5612ec9565b5b0160006012600086815260200190815260200160002060020154815260200190815260200160002060010160016101000a81548160ff021916908315150217905550505b50565b611a056123b9565b60008310158015611a30575060018263ffffffff1660078110611a2b57611a2a612ec9565b5b015483105b611a6f576040517f08c379a0000000000000000000000000000000000000000000000000000000008152600401611a66906136fb565b60405180910390fd5b600b8263ffffffff1660078110611a8957611a88612ec9565b5b01600084815260200190815260200160002060405180610180016040529081600082015481526020016001820160009054906101000a900460ff161515151581526020016001820160019054906101000a900460ff161515151581526020016001820160029054906101000a900473ffffffffffffffffffffffffffffffffffffffff1673ffffffffffffffffffffffffffffffffffffffff1673ffffffffffffffffffffffffffffffffffffffff168152602001600282018054611b4d90613080565b80601f0160208091040260200160405190810160405280929190818152602001828054611b7990613080565b8015611bc65780601f10611b9b57610100808354040283529160200191611bc6565b820191906000526020600020905b815481529060010190602001808311611ba957829003601f168201915b505050505081526020016003820160009054906101000a900463ffffffff1663ffffffff1663ffffffff168152602001600482018054611c0590613080565b80601f0160208091040260200160405190810160405280929190818152602001828054611c3190613080565b8015611c7e5780601f10611c5357610100808354040283529160200191611c7e565b820191906000526020600020905b815481529060010190602001808311611c6157829003601f168201915b50505050508152602001600582018054611c9790613080565b80601f0160208091040260200160405190810160405280929190818152602001828054611cc390613080565b8015611d105780601f10611ce557610100808354040283529160200191611d10565b820191906000526020600020905b815481529060010190602001808311611cf357829003601f168201915b5050505050815260200160068201548152602001600782015481526020016008820160009054906101000a900463ffffffff1663ffffffff1663ffffffff16815260200160098201805480602002602001604051908101604052809291908181526020018280548015611da257602002820191906000526020600020905b815481526020019060010190808311611d8e575b505050505081525050905092915050565b611dbb6123b9565b600763ffffffff168263ffffffff16108015611dde575060008263ffffffff1610155b611e1d576040517f08c379a0000000000000000000000000000000000000000000000000000000008152600401611e1490613767565b60405180910390fd5b600060018363ffffffff1660078110611e3957611e38612ec9565b5b015411611e4557600080fd5b600060018363ffffffff1660078110611e6157611e60612ec9565b5b0154424433604051602001611e78939291906137f0565b6040516020818303038152906040528051906020012060001c611e9b919061385c565b9050600b8363ffffffff1660078110611eb757611eb6612ec9565b5b016000828152602001908152602001600020600801600081819054906101000a900463ffffffff1680929190611eec9061388d565b91906101000a81548163ffffffff021916908363ffffffff16021790555050600b8363ffffffff1660078110611f2557611f24612ec9565b5b01600082815260200190815260200160002060405180610180016040529081600082015481526020016001820160009054906101000a900460ff161515151581526020016001820160019054906101000a900460ff161515151581526020016001820160029054906101000a900473ffffffffffffffffffffffffffffffffffffffff1673ffffffffffffffffffffffffffffffffffffffff1673ffffffffffffffffffffffffffffffffffffffff168152602001600282018054611fe990613080565b80601f016020809104026020016040519081016040528092919081815260200182805461201590613080565b80156120625780601f1061203757610100808354040283529160200191612062565b820191906000526020600020905b81548152906001019060200180831161204557829003601f168201915b505050505081526020016003820160009054906101000a900463ffffffff1663ffffffff1663ffffffff1681526020016004820180546120a190613080565b80601f01602080910402602001604051908101604052809291908181526020018280546120cd90613080565b801561211a5780601f106120ef5761010080835404028352916020019161211a565b820191906000526020600020905b8154815290600101906020018083116120fd57829003601f168201915b5050505050815260200160058201805461213390613080565b80601f016020809104026020016040519081016040528092919081815260200182805461215f90613080565b80156121ac5780601f10612181576101008083540402835291602001916121ac565b820191906000526020600020905b81548152906001019060200180831161218f57829003601f168201915b5050505050815260200160068201548152602001600782015481526020016008820160009054906101000a900463ffffffff1663ffffffff1663ffffffff1681526020016009820180548060200260200160405190810160405280929190818152602001828054801561223e57602002820191906000526020600020905b81548152602001906001019080831161222a575b505050505081525050915050919050565b600080600090505b82518163ffffffff1610156122d657828163ffffffff168151811061227f5761227e612ec9565b5b602002602001015173ffffffffffffffffffffffffffffffffffffffff168473ffffffffffffffffffffffffffffffffffffffff16036122c35760019150506122dc565b80806122ce9061388d565b915050612257565b50600090505b92915050565b82805482825590600052602060002090810192821561231e579160200282015b8281111561231d578251825591602001919060010190612302565b5b50905061232b9190612440565b5090565b8280548282559060005260206000209081019282156123a8579160200282015b828111156123a75782518260006101000a81548173ffffffffffffffffffffffffffffffffffffffff021916908373ffffffffffffffffffffffffffffffffffffffff1602179055509160200191906001019061234f565b5b5090506123b59190612440565b5090565b60405180610180016040528060008152602001600015158152602001600015158152602001600073ffffffffffffffffffffffffffffffffffffffff16815260200160608152602001600063ffffffff16815260200160608152602001606081526020016000815260200160008152602001600063ffffffff168152602001606081525090565b5b80821115612459576000816000905550600101612441565b5090565b6000604051905090565b600080fd5b600080fd5b6000819050919050565b61248481612471565b811461248f57600080fd5b50565b6000813590506124a18161247b565b92915050565b6000602082840312156124bd576124bc612467565b5b60006124cb84828501612492565b91505092915050565b600081519050919050565b600082825260208201905092915050565b6000819050602082019050919050565b600073ffffffffffffffffffffffffffffffffffffffff82169050919050565b600061252b82612500565b9050919050565b61253b81612520565b82525050565b600061254d8383612532565b60208301905092915050565b6000602082019050919050565b6000612571826124d4565b61257b81856124df565b9350612586836124f0565b8060005b838110156125b757815161259e8882612541565b97506125a983612559565b92505060018101905061258a565b5085935050505092915050565b600060208201905081810360008301526125de8184612566565b905092915050565b60006125f182612500565b9050919050565b612601816125e6565b811461260c57600080fd5b50565b60008135905061261e816125f8565b92915050565b600080fd5b600080fd5b6000601f19601f8301169050919050565b7f4e487b7100000000000000000000000000000000000000000000000000000000600052604160045260246000fd5b6126778261262e565b810181811067ffffffffffffffff821117156126965761269561263f565b5b80604052505050565b60006126a961245d565b90506126b5828261266e565b919050565b600067ffffffffffffffff8211156126d5576126d461263f565b5b6126de8261262e565b9050602081019050919050565b82818337600083830152505050565b600061270d612708846126ba565b61269f565b90508281526020810184848401111561272957612728612629565b5b6127348482856126eb565b509392505050565b600082601f83011261275157612750612624565b5b81356127618482602086016126fa565b91505092915050565b600063ffffffff82169050919050565b6127838161276a565b811461278e57600080fd5b50565b6000813590506127a08161277a565b92915050565b60008060008060008060c087890312156127c3576127c2612467565b5b60006127d189828a0161260f565b965050602087013567ffffffffffffffff8111156127f2576127f161246c565b5b6127fe89828a0161273c565b955050604061280f89828a01612791565b945050606087013567ffffffffffffffff8111156128305761282f61246c565b5b61283c89828a0161273c565b935050608087013567ffffffffffffffff81111561285d5761285c61246c565b5b61286989828a0161273c565b92505060a061287a89828a01612492565b9150509295509295509295565b61289081612471565b82525050565b60006020820190506128ab6000830184612887565b92915050565b600080604083850312156128c8576128c7612467565b5b60006128d685828601612492565b92505060206128e785828601612492565b9150509250929050565b60008115159050919050565b612906816128f1565b82525050565b612915816125e6565b82525050565b600081519050919050565b600082825260208201905092915050565b60005b8381101561295557808201518184015260208101905061293a565b60008484015250505050565b600061296c8261291b565b6129768185612926565b9350612986818560208601612937565b61298f8161262e565b840191505092915050565b6129a38161276a565b82525050565b6000610160820190506129bf600083018e612887565b6129cc602083018d6128fd565b6129d9604083018c6128fd565b6129e6606083018b61290c565b81810360808301526129f8818a612961565b9050612a0760a083018961299a565b81810360c0830152612a198188612961565b905081810360e0830152612a2d8187612961565b9050612a3d610100830186612887565b612a4b610120830185612887565b612a5961014083018461299a565b9c9b505050505050505050505050565b600060ff82169050919050565b612a7f81612a69565b82525050565b6000608082019050612a9a6000830187612887565b612aa760208301866128fd565b612ab46040830185612a76565b612ac16060830184612887565b95945050505050565b60008060408385031215612ae157612ae0612467565b5b6000612aef85828601612492565b9250506020612b0085828601612791565b9150509250929050565b612b1381612a69565b8114612b1e57600080fd5b50565b600081359050612b3081612b0a565b92915050565b600080600080600080600060e0888a031215612b5557612b54612467565b5b6000612b638a828b01612b21565b9750506020612b748a828b01612492565b9650506040612b858a828b0161260f565b955050606088013567ffffffffffffffff811115612ba657612ba561246c565b5b612bb28a828b0161273c565b945050608088013567ffffffffffffffff811115612bd357612bd261246c565b5b612bdf8a828b0161273c565b93505060a088013567ffffffffffffffff811115612c0057612bff61246c565b5b612c0c8a828b0161273c565b92505060c0612c1d8a828b01612492565b91505092959891949750929550565b612c3581612471565b82525050565b612c44816128f1565b82525050565b612c53816125e6565b82525050565b600082825260208201905092915050565b6000612c758261291b565b612c7f8185612c59565b9350612c8f818560208601612937565b612c988161262e565b840191505092915050565b612cac8161276a565b82525050565b600081519050919050565b600082825260208201905092915050565b6000819050602082019050919050565b6000612cea8383612c2c565b60208301905092915050565b6000602082019050919050565b6000612d0e82612cb2565b612d188185612cbd565b9350612d2383612cce565b8060005b83811015612d54578151612d3b8882612cde565b9750612d4683612cf6565b925050600181019050612d27565b5085935050505092915050565b600061018083016000830151612d7a6000860182612c2c565b506020830151612d8d6020860182612c3b565b506040830151612da06040860182612c3b565b506060830151612db36060860182612c4a565b5060808301518482036080860152612dcb8282612c6a565b91505060a0830151612de060a0860182612ca3565b5060c083015184820360c0860152612df88282612c6a565b91505060e083015184820360e0860152612e128282612c6a565b915050610100830151612e29610100860182612c2c565b50610120830151612e3e610120860182612c2c565b50610140830151612e53610140860182612ca3565b50610160830151848203610160860152612e6d8282612d03565b9150508091505092915050565b60006020820190508181036000830152612e948184612d61565b905092915050565b600060208284031215612eb257612eb1612467565b5b6000612ec084828501612791565b91505092915050565b7f4e487b7100000000000000000000000000000000000000000000000000000000600052603260045260246000fd5b7f4e487b7100000000000000000000000000000000000000000000000000000000600052601160045260246000fd5b6000612f3282612471565b9150612f3d83612471565b9250828202612f4b81612471565b91508282048414831517612f6257612f61612ef8565b5b5092915050565b6000819050919050565b6000819050919050565b6000612f98612f93612f8e84612f69565b612f73565b61276a565b9050919050565b612fa881612f7d565b82525050565b6000606082019050612fc36000830186612f9f565b612fd06020830185612887565b612fdd6040830184612887565b949350505050565b7f4976616c69642074616700000000000000000000000000000000000000000000600082015250565b600061301b600a83612926565b915061302682612fe5565b602082019050919050565b6000602082019050818103600083015261304a8161300e565b9050919050565b7f4e487b7100000000000000000000000000000000000000000000000000000000600052602260045260246000fd5b6000600282049050600182168061309857607f821691505b6020821081036130ab576130aa613051565b5b50919050565b60008190508160005260206000209050919050565b60006020601f8301049050919050565b600082821b905092915050565b6000600883026131137fffffffffffffffffffffffffffffffffffffffffffffffffffffffffffffffff826130d6565b61311d86836130d6565b95508019841693508086168417925050509392505050565b600061315061314b61314684612471565b612f73565b612471565b9050919050565b6000819050919050565b61316a83613135565b61317e61317682613157565b8484546130e3565b825550505050565b600090565b613193613186565b61319e818484613161565b505050565b5b818110156131c2576131b760008261318b565b6001810190506131a4565b5050565b601f821115613207576131d8816130b1565b6131e1846130c6565b810160208510156131f0578190505b6132046131fc856130c6565b8301826131a3565b50505b505050565b600082821c905092915050565b600061322a6000198460080261320c565b1980831691505092915050565b60006132438383613219565b9150826002028217905092915050565b61325c8261291b565b67ffffffffffffffff8111156132755761327461263f565b5b61327f8254613080565b61328a8282856131c6565b600060209050601f8311600181146132bd57600084156132ab578287015190505b6132b58582613237565b86555061331d565b601f1984166132cb866130b1565b60005b828110156132f3578489015182556001820191506020850194506020810190506132ce565b86831015613310578489015161330c601f891682613219565b8355505b6001600288020188555050505b505050505050565b600061333082612471565b91507fffffffffffffffffffffffffffffffffffffffffffffffffffffffffffffffff820361336257613361612ef8565b5b600182019050919050565b600081905092915050565b60006133838261291b565b61338d818561336d565b935061339d818560208601612937565b80840191505092915050565b60006133b58284613378565b915081905092915050565b600060608201905081810360008301526133da8186612961565b905081810360208301526133ee8185612961565b90506133fd6040830184612887565b949350505050565b7f596f7520617265206e6f7420746865206f776e6572206f66207468697320706f60008201527f7374000000000000000000000000000000000000000000000000000000000000602082015250565b6000613461602283612926565b915061346c82613405565b604082019050919050565b6000602082019050818103600083015261349081613454565b9050919050565b7f5468697320706f737420686173206265656e20666c61676765642066616c7365600082015250565b60006134cd602083612926565b91506134d882613497565b602082019050919050565b600060208201905081810360008301526134fc816134c0565b9050919050565b7f526174696e67206d7573742062652067726561746572207468616e2038352500600082015250565b6000613539601f83612926565b915061354482613503565b602082019050919050565b600060208201905081810360008301526135688161352c565b9050919050565b7f596f75206861766520616c726561647920636f6e6669726d6564000000000000600082015250565b60006135a5601a83612926565b91506135b08261356f565b602082019050919050565b600060208201905081810360008301526135d481613598565b9050919050565b7f5265706f7274206973207265667574656420616e642061726368697665640000600082015250565b6000613611601e83612926565b915061361c826135db565b602082019050919050565b6000602082019050818103600083015261364081613604565b9050919050565b600061366261365d61365884612a69565b612f73565b61276a565b9050919050565b61367281613647565b82525050565b600060608201905061368d6000830186613669565b61369a6020830185612887565b6136a76040830184612887565b949350505050565b7f496e76616c696420696e64696365730000000000000000000000000000000000600082015250565b60006136e5600f83612926565b91506136f0826136af565b602082019050919050565b60006020820190508181036000830152613714816136d8565b9050919050565b7f496e76616c696420746167000000000000000000000000000000000000000000600082015250565b6000613751600b83612926565b915061375c8261371b565b602082019050919050565b6000602082019050818103600083015261378081613744565b9050919050565b6000819050919050565b6137a261379d82612471565b613787565b82525050565b60008160601b9050919050565b60006137c0826137a8565b9050919050565b60006137d2826137b5565b9050919050565b6137ea6137e582612520565b6137c7565b82525050565b60006137fc8286613791565b60208201915061380c8285613791565b60208201915061381c82846137d9565b601482019150819050949350505050565b7f4e487b7100000000000000000000000000000000000000000000000000000000600052601260045260246000fd5b600061386782612471565b915061387283612471565b9250826138825761388161382d565b5b828206905092915050565b60006138988261276a565b915063ffffffff82036138ae576138ad612ef8565b5b60018201905091905056fea26469706673582212204ba6f8e2d493775f0614be2059bb2bb5c94f83bef77d2f65e30bd0b46d1dcc1e64736f6c63430008110033",
  "linkReferences": {},
  "deployedLinkReferences": {}
}