{
  "_format": "hh-sol-artifact-1",
  "contractName": "Article",
  "sourceName": "contracts/Article.sol",
  "abi": [
    {
      "inputs": [],
      "stateMutability": "payable",
      "type": "constructor"
    },
    {
      "anonymous": false,
      "inputs": [
        {
          "indexed": false,
          "internalType": "uint256",
          "name": "id",
          "type": "uint256"
        },
        {
          "indexed": true,
          "internalType": "address",
          "name": "from",
          "type": "address"
        },
        {
          "indexed": true,
          "internalType": "string",
          "name": "newsLang",
          "type": "string"
        },
        {
          "indexed": true,
          "internalType": "uint32",
          "name": "tag",
          "type": "uint32"
        },
        {
          "indexed": false,
          "internalType": "string",
          "name": "headline",
          "type": "string"
        },
        {
          "indexed": false,
          "internalType": "string",
          "name": "content",
          "type": "string"
        },
        {
          "indexed": false,
          "internalType": "uint256",
          "name": "timestamp",
          "type": "uint256"
        }
      ],
      "name": "post",
      "type": "event"
    },
    {
      "anonymous": false,
      "inputs": [
        {
          "indexed": false,
          "internalType": "uint32",
          "name": "tag",
          "type": "uint32"
        },
        {
          "indexed": false,
          "internalType": "uint256",
          "name": "id",
          "type": "uint256"
        },
        {
          "indexed": false,
          "internalType": "uint256",
          "name": "penalty",
          "type": "uint256"
        }
      ],
      "name": "refuteArticle",
      "type": "event"
    },
    {
      "anonymous": false,
      "inputs": [
        {
          "indexed": true,
          "internalType": "uint256",
          "name": "id",
          "type": "uint256"
        },
        {
          "components": [
            {
              "internalType": "uint256",
              "name": "id",
              "type": "uint256"
            },
            {
              "internalType": "bool",
              "name": "isReportPost",
              "type": "bool"
            },
            {
              "internalType": "bool",
              "name": "truth",
              "type": "bool"
            },
            {
              "internalType": "address payable",
              "name": "from",
              "type": "address"
            },
            {
              "internalType": "string",
              "name": "newsLang",
              "type": "string"
            },
            {
              "internalType": "uint32",
              "name": "tag",
              "type": "uint32"
            },
            {
              "internalType": "string",
              "name": "headline",
              "type": "string"
            },
            {
              "internalType": "string",
              "name": "content",
              "type": "string"
            },
            {
              "internalType": "uint256",
              "name": "timestamp",
              "type": "uint256"
            },
            {
              "internalType": "uint256",
              "name": "rating",
              "type": "uint256"
            },
            {
              "internalType": "uint32",
              "name": "interactions",
              "type": "uint32"
            },
            {
              "internalType": "uint256[]",
              "name": "reports",
              "type": "uint256[]"
            }
          ],
          "indexed": false,
          "internalType": "struct Article.Post",
          "name": "post",
          "type": "tuple"
        }
      ],
      "name": "viewPost",
      "type": "event"
    },
    {
      "stateMutability": "payable",
      "type": "fallback"
    },
    {
      "inputs": [
        {
          "internalType": "uint256",
          "name": "",
          "type": "uint256"
        },
        {
          "internalType": "uint256",
          "name": "",
          "type": "uint256"
        }
      ],
      "name": "Posts",
      "outputs": [
        {
          "internalType": "uint256",
          "name": "id",
          "type": "uint256"
        },
        {
          "internalType": "bool",
          "name": "isReportPost",
          "type": "bool"
        },
        {
          "internalType": "bool",
          "name": "truth",
          "type": "bool"
        },
        {
          "internalType": "address payable",
          "name": "from",
          "type": "address"
        },
        {
          "internalType": "string",
          "name": "newsLang",
          "type": "string"
        },
        {
          "internalType": "uint32",
          "name": "tag",
          "type": "uint32"
        },
        {
          "internalType": "string",
          "name": "headline",
          "type": "string"
        },
        {
          "internalType": "string",
          "name": "content",
          "type": "string"
        },
        {
          "internalType": "uint256",
          "name": "timestamp",
          "type": "uint256"
        },
        {
          "internalType": "uint256",
          "name": "rating",
          "type": "uint256"
        },
        {
          "internalType": "uint32",
          "name": "interactions",
          "type": "uint32"
        }
      ],
      "stateMutability": "view",
      "type": "function"
    },
    {
      "inputs": [
        {
          "internalType": "uint256",
          "name": "",
          "type": "uint256"
        }
      ],
      "name": "Reports",
      "outputs": [
        {
          "internalType": "uint256",
          "name": "id",
          "type": "uint256"
        },
        {
          "internalType": "bool",
          "name": "isArchived",
          "type": "bool"
        },
        {
          "internalType": "uint8",
          "name": "reportPostTag",
          "type": "uint8"
        },
        {
          "internalType": "uint256",
          "name": "reportPostID",
          "type": "uint256"
        }
      ],
      "stateMutability": "view",
      "type": "function"
    },
    {
      "inputs": [
        {
          "internalType": "uint256",
          "name": "id",
          "type": "uint256"
        }
      ],
      "name": "confirmReport",
      "outputs": [],
      "stateMutability": "nonpayable",
      "type": "function"
    },
    {
      "inputs": [
        {
          "internalType": "uint256",
          "name": "id",
          "type": "uint256"
        },
        {
          "internalType": "uint32",
          "name": "tag",
          "type": "uint32"
        }
      ],
      "name": "getPostByID",
      "outputs": [
        {
          "components": [
            {
              "internalType": "uint256",
              "name": "id",
              "type": "uint256"
            },
            {
              "internalType": "bool",
              "name": "isReportPost",
              "type": "bool"
            },
            {
              "internalType": "bool",
              "name": "truth",
              "type": "bool"
            },
            {
              "internalType": "address payable",
              "name": "from",
              "type": "address"
            },
            {
              "internalType": "string",
              "name": "newsLang",
              "type": "string"
            },
            {
              "internalType": "uint32",
              "name": "tag",
              "type": "uint32"
            },
            {
              "internalType": "string",
              "name": "headline",
              "type": "string"
            },
            {
              "internalType": "string",
              "name": "content",
              "type": "string"
            },
            {
              "internalType": "uint256",
              "name": "timestamp",
              "type": "uint256"
            },
            {
              "internalType": "uint256",
              "name": "rating",
              "type": "uint256"
            },
            {
              "internalType": "uint32",
              "name": "interactions",
              "type": "uint32"
            },
            {
              "internalType": "uint256[]",
              "name": "reports",
              "type": "uint256[]"
            }
          ],
          "internalType": "struct Article.Post",
          "name": "result",
          "type": "tuple"
        }
      ],
      "stateMutability": "view",
      "type": "function"
    },
    {
      "inputs": [
        {
          "internalType": "uint32",
          "name": "tag",
          "type": "uint32"
        }
      ],
      "name": "getPostByTag",
      "outputs": [
        {
          "components": [
            {
              "internalType": "uint256",
              "name": "id",
              "type": "uint256"
            },
            {
              "internalType": "bool",
              "name": "isReportPost",
              "type": "bool"
            },
            {
              "internalType": "bool",
              "name": "truth",
              "type": "bool"
            },
            {
              "internalType": "address payable",
              "name": "from",
              "type": "address"
            },
            {
              "internalType": "string",
              "name": "newsLang",
              "type": "string"
            },
            {
              "internalType": "uint32",
              "name": "tag",
              "type": "uint32"
            },
            {
              "internalType": "string",
              "name": "headline",
              "type": "string"
            },
            {
              "internalType": "string",
              "name": "content",
              "type": "string"
            },
            {
              "internalType": "uint256",
              "name": "timestamp",
              "type": "uint256"
            },
            {
              "internalType": "uint256",
              "name": "rating",
              "type": "uint256"
            },
            {
              "internalType": "uint32",
              "name": "interactions",
              "type": "uint32"
            },
            {
              "internalType": "uint256[]",
              "name": "reports",
              "type": "uint256[]"
            }
          ],
          "internalType": "struct Article.Post",
          "name": "",
          "type": "tuple"
        }
      ],
      "stateMutability": "nonpayable",
      "type": "function"
    },
    {
      "inputs": [
        {
          "internalType": "address payable",
          "name": "from",
          "type": "address"
        },
        {
          "internalType": "string",
          "name": "newsLang",
          "type": "string"
        },
        {
          "internalType": "uint32",
          "name": "tag",
          "type": "uint32"
        },
        {
          "internalType": "string",
          "name": "headline",
          "type": "string"
        },
        {
          "internalType": "string",
          "name": "content",
          "type": "string"
        },
        {
          "internalType": "uint256",
          "name": "rating",
          "type": "uint256"
        }
      ],
      "name": "postArticle",
      "outputs": [
        {
          "internalType": "uint256",
          "name": "id",
          "type": "uint256"
        }
      ],
      "stateMutability": "nonpayable",
      "type": "function"
    },
    {
      "inputs": [
        {
          "internalType": "uint256",
          "name": "",
          "type": "uint256"
        }
      ],
      "name": "postCount",
      "outputs": [
        {
          "internalType": "uint256",
          "name": "",
          "type": "uint256"
        }
      ],
      "stateMutability": "view",
      "type": "function"
    },
    {
      "inputs": [
        {
          "internalType": "uint256",
          "name": "id",
          "type": "uint256"
        }
      ],
      "name": "refuteReport",
      "outputs": [],
      "stateMutability": "nonpayable",
      "type": "function"
    },
    {
      "inputs": [
        {
          "internalType": "uint8",
          "name": "reportPostTag",
          "type": "uint8"
        },
        {
          "internalType": "uint256",
          "name": "reportPostID",
          "type": "uint256"
        },
        {
          "internalType": "address payable",
          "name": "from",
          "type": "address"
        },
        {
          "internalType": "string",
          "name": "newsLang",
          "type": "string"
        },
        {
          "internalType": "string",
          "name": "headline",
          "type": "string"
        },
        {
          "internalType": "string",
          "name": "content",
          "type": "string"
        },
        {
          "internalType": "uint256",
          "name": "rating",
          "type": "uint256"
        }
      ],
      "name": "reportArticle",
      "outputs": [],
      "stateMutability": "nonpayable",
      "type": "function"
    },
    {
      "inputs": [],
      "name": "reportCount",
      "outputs": [
        {
          "internalType": "uint256",
          "name": "",
          "type": "uint256"
        }
      ],
      "stateMutability": "view",
      "type": "function"
    },
    {
      "inputs": [
        {
          "internalType": "uint256",
          "name": "id",
          "type": "uint256"
        }
      ],
      "name": "reportStats",
      "outputs": [
        {
          "internalType": "uint256",
          "name": "confirmations",
          "type": "uint256"
        },
        {
          "internalType": "uint256",
          "name": "refutations",
          "type": "uint256"
        }
      ],
      "stateMutability": "view",
      "type": "function"
    },
    {
      "inputs": [
        {
          "internalType": "uint256",
          "name": "id",
          "type": "uint256"
        }
      ],
      "name": "viewConfirmations",
      "outputs": [
        {
          "internalType": "address[]",
          "name": "",
          "type": "address[]"
        }
      ],
      "stateMutability": "view",
      "type": "function"
    },
    {
      "inputs": [
        {
          "internalType": "uint256",
          "name": "id",
          "type": "uint256"
        },
        {
          "internalType": "uint32",
          "name": "tag",
          "type": "uint32"
        }
      ],
      "name": "withdraw",
      "outputs": [],
      "stateMutability": "payable",
      "type": "function"
    },
    {
      "stateMutability": "payable",
      "type": "receive"
    }
  ],
  "bytecode": "0x6080604052600060085564e8d4a5100060095564e8d4a51000600a55336000806101000a81548173ffffffffffffffffffffffffffffffffffffffff021916908373ffffffffffffffffffffffffffffffffffffffff1602179055506138e08061006a6000396000f3fe6080604052600436106100c65760003560e01c8063467f2cd81161007f578063bd02574911610059578063bd025749146102bb578063e6876ecc146102e4578063f25060d21461030d578063f86c27d31461034a576100cd565b8063467f2cd8146102215780636145d1b714610261578063923da4701461027d576100cd565b80630e07f901146100cf5780630f6b75d6146100f85780630fabb8a814610135578063185c6f8414610172578063284837881461019d57806345c55e47146101da576100cd565b366100cd57005b005b3480156100db57600080fd5b506100f660048036038101906100f19190612499565b610387565b005b34801561010457600080fd5b5061011f600480360381019061011a9190612499565b6105d2565b60405161012c91906125b6565b60405180910390f35b34801561014157600080fd5b5061015c60048036038101906101579190612798565b610676565b6040516101699190612888565b60405180910390f35b34801561017e57600080fd5b50610187610a54565b6040516101949190612888565b60405180910390f35b3480156101a957600080fd5b506101c460048036038101906101bf9190612499565b610a5a565b6040516101d19190612888565b60405180910390f35b3480156101e657600080fd5b5061020160048036038101906101fc91906128a3565b610a75565b6040516102189b9a9998979695949392919061299b565b60405180910390f35b34801561022d57600080fd5b5061024860048036038101906102439190612499565b610cd1565b6040516102589493929190612a77565b60405180910390f35b61027b60048036038101906102769190612abc565b610d1b565b005b34801561028957600080fd5b506102a4600480360381019061029f9190612499565b611216565b6040516102b2929190612afc565b60405180910390f35b3480156102c757600080fd5b506102e260048036038101906102dd9190612b51565b611256565b005b3480156102f057600080fd5b5061030b60048036038101906103069190612499565b61176f565b005b34801561031957600080fd5b50610334600480360381019061032f9190612abc565b6119ef565b6040516103419190612e95565b60405180910390f35b34801561035657600080fd5b50610371600480360381019061036c9190612eb7565b611da5565b60405161037e9190612e95565b60405180910390f35b61042b336012600084815260200190815260200160002060040180548060200260200160405190810160405280929190818152602001828054801561042157602002820191906000526020600020905b8160009054906101000a900473ffffffffffffffffffffffffffffffffffffffff1673ffffffffffffffffffffffffffffffffffffffff16815260200190600101908083116103d7575b5050505050612241565b1561043557600080fd5b60126000828152602001908152602001600020600401339080600181540180825580915050600190039060005260206000200160009091909190916101000a81548173ffffffffffffffffffffffffffffffffffffffff021916908373ffffffffffffffffffffffffffffffffffffffff160217905550600a6012600083815260200190815260200160002060040180549050036105cf576000600b6000600781106104e4576104e3612ee4565b5b01600083815260200190815260200160002060080160009054906101000a900463ffffffff1663ffffffff16600a5461051d9190612f42565b90507fec7a6d51f9e94386ae3c020b954f8b4aabd4ec48d601a0ec75197fc24a74b6026000838360405161055393929190612fc9565b60405180910390a16000600b60006007811061057257610571612ee4565b5b01600084815260200190815260200160002060010160016101000a81548160ff02191690831515021790555060016012600084815260200190815260200160002060010160006101000a81548160ff021916908315150217905550505b50565b60606012600083815260200190815260200160002060030180548060200260200160405190810160405280929190818152602001828054801561066a57602002820191906000526020600020905b8160009054906101000a900473ffffffffffffffffffffffffffffffffffffffff1673ffffffffffffffffffffffffffffffffffffffff1681526020019060010190808311610620575b50505050509050919050565b6000600763ffffffff168563ffffffff1610801561069b575060008563ffffffff1610155b6106da576040517f08c379a00000000000000000000000000000000000000000000000000000000081526004016106d19061304c565b60405180910390fd5b60405180610180016040528060018763ffffffff1660078110610700576106ff612ee4565b5b015481526020016000151581526020016001151581526020018873ffffffffffffffffffffffffffffffffffffffff1681526020018781526020018663ffffffff168152602001858152602001848152602001428152602001838152602001600063ffffffff168152602001600067ffffffffffffffff81111561078757610786612631565b5b6040519080825280602002602001820160405280156107b55781602001602082028036833780820191505090505b50815250600b8663ffffffff16600781106107d3576107d2612ee4565b5b01600060018863ffffffff16600781106107f0576107ef612ee4565b5b015481526020019081526020016000206000820151816000015560208201518160010160006101000a81548160ff02191690831515021790555060408201518160010160016101000a81548160ff02191690831515021790555060608201518160010160026101000a81548173ffffffffffffffffffffffffffffffffffffffff021916908373ffffffffffffffffffffffffffffffffffffffff16021790555060808201518160020190816108a6919061326e565b5060a08201518160030160006101000a81548163ffffffff021916908363ffffffff16021790555060c08201518160040190816108e3919061326e565b5060e08201518160050190816108f9919061326e565b50610100820151816006015561012082015181600701556101408201518160080160006101000a81548163ffffffff021916908363ffffffff1602179055506101608201518160090190805190602001906109559291906122d4565b5090505060018563ffffffff166007811061097357610972612ee4565b5b01600081548092919061098590613340565b91905055508463ffffffff168660405161099f91906133c4565b60405180910390208873ffffffffffffffffffffffffffffffffffffffff167f4b72fd22411255fb6c0ab60c7ea7c4a84ff441285ba1eeafcfce60404bba9ac16001808a63ffffffff16600781106109fa576109f9612ee4565b5b0154610a0691906133db565b888842604051610a19949392919061340f565b60405180910390a46001808663ffffffff1660078110610a3c57610a3b612ee4565b5b0154610a4891906133db565b90509695505050505050565b60085481565b60018160078110610a6a57600080fd5b016000915090505481565b600b8260078110610a8557600080fd5b01602052806000526040600020600091509150508060000154908060010160009054906101000a900460ff16908060010160019054906101000a900460ff16908060010160029054906101000a900473ffffffffffffffffffffffffffffffffffffffff1690806002018054610afa9061309b565b80601f0160208091040260200160405190810160405280929190818152602001828054610b269061309b565b8015610b735780601f10610b4857610100808354040283529160200191610b73565b820191906000526020600020905b815481529060010190602001808311610b5657829003601f168201915b5050505050908060030160009054906101000a900463ffffffff1690806004018054610b9e9061309b565b80601f0160208091040260200160405190810160405280929190818152602001828054610bca9061309b565b8015610c175780601f10610bec57610100808354040283529160200191610c17565b820191906000526020600020905b815481529060010190602001808311610bfa57829003601f168201915b505050505090806005018054610c2c9061309b565b80601f0160208091040260200160405190810160405280929190818152602001828054610c589061309b565b8015610ca55780601f10610c7a57610100808354040283529160200191610ca5565b820191906000526020600020905b815481529060010190602001808311610c8857829003601f168201915b5050505050908060060154908060070154908060080160009054906101000a900463ffffffff1690508b565b60126020528060005260406000206000915090508060000154908060010160009054906101000a900460ff16908060010160019054906101000a900460ff16908060020154905084565b6000600b8263ffffffff1660078110610d3757610d36612ee4565b5b01600084815260200190815260200160002060405180610180016040529081600082015481526020016001820160009054906101000a900460ff161515151581526020016001820160019054906101000a900460ff161515151581526020016001820160029054906101000a900473ffffffffffffffffffffffffffffffffffffffff1673ffffffffffffffffffffffffffffffffffffffff1673ffffffffffffffffffffffffffffffffffffffff168152602001600282018054610dfb9061309b565b80601f0160208091040260200160405190810160405280929190818152602001828054610e279061309b565b8015610e745780601f10610e4957610100808354040283529160200191610e74565b820191906000526020600020905b815481529060010190602001808311610e5757829003601f168201915b505050505081526020016003820160009054906101000a900463ffffffff1663ffffffff1663ffffffff168152602001600482018054610eb39061309b565b80601f0160208091040260200160405190810160405280929190818152602001828054610edf9061309b565b8015610f2c5780601f10610f0157610100808354040283529160200191610f2c565b820191906000526020600020905b815481529060010190602001808311610f0f57829003601f168201915b50505050508152602001600582018054610f459061309b565b80601f0160208091040260200160405190810160405280929190818152602001828054610f719061309b565b8015610fbe5780601f10610f9357610100808354040283529160200191610fbe565b820191906000526020600020905b815481529060010190602001808311610fa157829003601f168201915b5050505050815260200160068201548152602001600782015481526020016008820160009054906101000a900463ffffffff1663ffffffff1663ffffffff1681526020016009820180548060200260200160405190810160405280929190818152602001828054801561105057602002820191906000526020600020905b81548152602001906001019080831161103c575b50505050508152505090503373ffffffffffffffffffffffffffffffffffffffff16816060015173ffffffffffffffffffffffffffffffffffffffff16146110cd576040517f08c379a00000000000000000000000000000000000000000000000000000000081526004016110c4906134d4565b60405180910390fd5b600b8263ffffffff16600781106110e7576110e6612ee4565b5b01600084815260200190815260200160002060010160019054906101000a900460ff16611149576040517f08c379a000000000000000000000000000000000000000000000000000000000815260040161114090613540565b60405180910390fd5b600b8263ffffffff166007811061116357611162612ee4565b5b01600084815260200190815260200160002060010160029054906101000a900473ffffffffffffffffffffffffffffffffffffffff1673ffffffffffffffffffffffffffffffffffffffff166108fc60095483610140015163ffffffff166111cb9190612f42565b9081150290604051600060405180830381858888f193505050501580156111f6573d6000803e3d6000fd5b50600081610140019063ffffffff16908163ffffffff1681525050505050565b6000806012600084815260200190815260200160002060030180549050601260008581526020019081526020016000206004018054905091509150915091565b630510ff40811161129c576040517f08c379a0000000000000000000000000000000000000000000000000000000008152600401611293906135ac565b60405180910390fd5b60405180610180016040528060085481526020016001151581526020016001151581526020018673ffffffffffffffffffffffffffffffffffffffff168152602001858152602001600063ffffffff168152602001848152602001838152602001428152602001828152602001600063ffffffff168152602001600067ffffffffffffffff81111561133157611330612631565b5b60405190808252806020026020018201604052801561135f5781602001602082028036833780820191505090505b50815250600b60006007811061137857611377612ee4565b5b01600060085481526020019081526020016000206000820151816000015560208201518160010160006101000a81548160ff02191690831515021790555060408201518160010160016101000a81548160ff02191690831515021790555060608201518160010160026101000a81548173ffffffffffffffffffffffffffffffffffffffff021916908373ffffffffffffffffffffffffffffffffffffffff1602179055506080820151816002019081611432919061326e565b5060a08201518160030160006101000a81548163ffffffff021916908363ffffffff16021790555060c082015181600401908161146f919061326e565b5060e0820151816005019081611485919061326e565b50610100820151816006015561012082015181600701556101408201518160080160006101000a81548163ffffffff021916908363ffffffff1602179055506101608201518160090190805190602001906114e19291906122d4565b509050506040518060c0016040528060085481526020016000151581526020018860ff168152602001878152602001600067ffffffffffffffff81111561152b5761152a612631565b5b6040519080825280602002602001820160405280156115595781602001602082028036833780820191505090505b508152602001600067ffffffffffffffff81111561157a57611579612631565b5b6040519080825280602002602001820160405280156115a85781602001602082028036833780820191505090505b508152506012600060085481526020019081526020016000206000820151816000015560208201518160010160006101000a81548160ff02191690831515021790555060408201518160010160016101000a81548160ff021916908360ff160217905550606082015181600201556080820151816003019080519060200190611632929190612321565b5060a082015181600401908051906020019061164f929190612321565b50905050600b8760ff166007811061166a57611669612ee4565b5b0160008781526020019081526020016000206009016008549080600181540180825580915050600190039060005260206000200160009091909190915055600860008154809291906116bb90613340565b919050555060016000600781106116d5576116d4612ee4565b5b0160008154809291906116e790613340565b91905055506000846040516116fc91906133c4565b60405180910390208673ffffffffffffffffffffffffffffffffffffffff167f4b72fd22411255fb6c0ab60c7ea7c4a84ff441285ba1eeafcfce60404bba9ac1600160085461174b91906133db565b87874260405161175e949392919061340f565b60405180910390a450505050505050565b6012600082815260200190815260200160002060010160009054906101000a900460ff16156117d3576040517f08c379a00000000000000000000000000000000000000000000000000000000081526004016117ca90613618565b60405180910390fd5b60126000828152602001908152602001600020600301339080600181540180825580915050600190039060005260206000200160009091909190916101000a81548173ffffffffffffffffffffffffffffffffffffffff021916908373ffffffffffffffffffffffffffffffffffffffff160217905550600a6012600083815260200190815260200160002060030180549050036119ec576000600b6012600084815260200190815260200160002060010160019054906101000a900460ff1660ff16600781106118a7576118a6612ee4565b5b0160006012600085815260200190815260200160002060020154815260200190815260200160002060080160009054906101000a900463ffffffff1663ffffffff16600a546118f69190612f42565b90507fec7a6d51f9e94386ae3c020b954f8b4aabd4ec48d601a0ec75197fc24a74b6026012600084815260200190815260200160002060010160019054906101000a900460ff1660126000858152602001908152602001600020600201548360405161196493929190613669565b60405180910390a16000600b6012600085815260200190815260200160002060010160019054906101000a900460ff1660ff16600781106119a8576119a7612ee4565b5b0160006012600086815260200190815260200160002060020154815260200190815260200160002060010160016101000a81548160ff021916908315150217905550505b50565b6119f76123ab565b60008310158015611a22575060018263ffffffff1660078110611a1d57611a1c612ee4565b5b015483105b611a61576040517f08c379a0000000000000000000000000000000000000000000000000000000008152600401611a58906136ec565b60405180910390fd5b600b8263ffffffff1660078110611a7b57611a7a612ee4565b5b01600084815260200190815260200160002060405180610180016040529081600082015481526020016001820160009054906101000a900460ff161515151581526020016001820160019054906101000a900460ff161515151581526020016001820160029054906101000a900473ffffffffffffffffffffffffffffffffffffffff1673ffffffffffffffffffffffffffffffffffffffff1673ffffffffffffffffffffffffffffffffffffffff168152602001600282018054611b3f9061309b565b80601f0160208091040260200160405190810160405280929190818152602001828054611b6b9061309b565b8015611bb85780601f10611b8d57610100808354040283529160200191611bb8565b820191906000526020600020905b815481529060010190602001808311611b9b57829003601f168201915b505050505081526020016003820160009054906101000a900463ffffffff1663ffffffff1663ffffffff168152602001600482018054611bf79061309b565b80601f0160208091040260200160405190810160405280929190818152602001828054611c239061309b565b8015611c705780601f10611c4557610100808354040283529160200191611c70565b820191906000526020600020905b815481529060010190602001808311611c5357829003601f168201915b50505050508152602001600582018054611c899061309b565b80601f0160208091040260200160405190810160405280929190818152602001828054611cb59061309b565b8015611d025780601f10611cd757610100808354040283529160200191611d02565b820191906000526020600020905b815481529060010190602001808311611ce557829003601f168201915b5050505050815260200160068201548152602001600782015481526020016008820160009054906101000a900463ffffffff1663ffffffff1663ffffffff16815260200160098201805480602002602001604051908101604052809291908181526020018280548015611d9457602002820191906000526020600020905b815481526020019060010190808311611d80575b505050505081525050905092915050565b611dad6123ab565b600763ffffffff168263ffffffff16108015611dd0575060008263ffffffff1610155b611e0f576040517f08c379a0000000000000000000000000000000000000000000000000000000008152600401611e0690613758565b60405180910390fd5b600060018363ffffffff1660078110611e2b57611e2a612ee4565b5b015411611e3757600080fd5b600060018363ffffffff1660078110611e5357611e52612ee4565b5b0154424433604051602001611e6a939291906137e1565b6040516020818303038152906040528051906020012060001c611e8d919061384d565b9050600b8363ffffffff1660078110611ea957611ea8612ee4565b5b016000828152602001908152602001600020600801600081819054906101000a900463ffffffff1680929190611ede9061387e565b91906101000a81548163ffffffff021916908363ffffffff16021790555050600b8363ffffffff1660078110611f1757611f16612ee4565b5b01600082815260200190815260200160002060405180610180016040529081600082015481526020016001820160009054906101000a900460ff161515151581526020016001820160019054906101000a900460ff161515151581526020016001820160029054906101000a900473ffffffffffffffffffffffffffffffffffffffff1673ffffffffffffffffffffffffffffffffffffffff1673ffffffffffffffffffffffffffffffffffffffff168152602001600282018054611fdb9061309b565b80601f01602080910402602001604051908101604052809291908181526020018280546120079061309b565b80156120545780601f1061202957610100808354040283529160200191612054565b820191906000526020600020905b81548152906001019060200180831161203757829003601f168201915b505050505081526020016003820160009054906101000a900463ffffffff1663ffffffff1663ffffffff1681526020016004820180546120939061309b565b80601f01602080910402602001604051908101604052809291908181526020018280546120bf9061309b565b801561210c5780601f106120e15761010080835404028352916020019161210c565b820191906000526020600020905b8154815290600101906020018083116120ef57829003601f168201915b505050505081526020016005820180546121259061309b565b80601f01602080910402602001604051908101604052809291908181526020018280546121519061309b565b801561219e5780601f106121735761010080835404028352916020019161219e565b820191906000526020600020905b81548152906001019060200180831161218157829003601f168201915b5050505050815260200160068201548152602001600782015481526020016008820160009054906101000a900463ffffffff1663ffffffff1663ffffffff1681526020016009820180548060200260200160405190810160405280929190818152602001828054801561223057602002820191906000526020600020905b81548152602001906001019080831161221c575b505050505081525050915050919050565b600080600090505b82518163ffffffff1610156122c857828163ffffffff168151811061227157612270612ee4565b5b602002602001015173ffffffffffffffffffffffffffffffffffffffff168473ffffffffffffffffffffffffffffffffffffffff16036122b55760019150506122ce565b80806122c09061387e565b915050612249565b50600090505b92915050565b828054828255906000526020600020908101928215612310579160200282015b8281111561230f5782518255916020019190600101906122f4565b5b50905061231d9190612432565b5090565b82805482825590600052602060002090810192821561239a579160200282015b828111156123995782518260006101000a81548173ffffffffffffffffffffffffffffffffffffffff021916908373ffffffffffffffffffffffffffffffffffffffff16021790555091602001919060010190612341565b5b5090506123a79190612432565b5090565b60405180610180016040528060008152602001600015158152602001600015158152602001600073ffffffffffffffffffffffffffffffffffffffff16815260200160608152602001600063ffffffff16815260200160608152602001606081526020016000815260200160008152602001600063ffffffff168152602001606081525090565b5b8082111561244b576000816000905550600101612433565b5090565b6000604051905090565b600080fd5b600080fd5b6000819050919050565b61247681612463565b811461248157600080fd5b50565b6000813590506124938161246d565b92915050565b6000602082840312156124af576124ae612459565b5b60006124bd84828501612484565b91505092915050565b600081519050919050565b600082825260208201905092915050565b6000819050602082019050919050565b600073ffffffffffffffffffffffffffffffffffffffff82169050919050565b600061251d826124f2565b9050919050565b61252d81612512565b82525050565b600061253f8383612524565b60208301905092915050565b6000602082019050919050565b6000612563826124c6565b61256d81856124d1565b9350612578836124e2565b8060005b838110156125a95781516125908882612533565b975061259b8361254b565b92505060018101905061257c565b5085935050505092915050565b600060208201905081810360008301526125d08184612558565b905092915050565b60006125e3826124f2565b9050919050565b6125f3816125d8565b81146125fe57600080fd5b50565b600081359050612610816125ea565b92915050565b600080fd5b600080fd5b6000601f19601f8301169050919050565b7f4e487b7100000000000000000000000000000000000000000000000000000000600052604160045260246000fd5b61266982612620565b810181811067ffffffffffffffff8211171561268857612687612631565b5b80604052505050565b600061269b61244f565b90506126a78282612660565b919050565b600067ffffffffffffffff8211156126c7576126c6612631565b5b6126d082612620565b9050602081019050919050565b82818337600083830152505050565b60006126ff6126fa846126ac565b612691565b90508281526020810184848401111561271b5761271a61261b565b5b6127268482856126dd565b509392505050565b600082601f83011261274357612742612616565b5b81356127538482602086016126ec565b91505092915050565b600063ffffffff82169050919050565b6127758161275c565b811461278057600080fd5b50565b6000813590506127928161276c565b92915050565b60008060008060008060c087890312156127b5576127b4612459565b5b60006127c389828a01612601565b965050602087013567ffffffffffffffff8111156127e4576127e361245e565b5b6127f089828a0161272e565b955050604061280189828a01612783565b945050606087013567ffffffffffffffff8111156128225761282161245e565b5b61282e89828a0161272e565b935050608087013567ffffffffffffffff81111561284f5761284e61245e565b5b61285b89828a0161272e565b92505060a061286c89828a01612484565b9150509295509295509295565b61288281612463565b82525050565b600060208201905061289d6000830184612879565b92915050565b600080604083850312156128ba576128b9612459565b5b60006128c885828601612484565b92505060206128d985828601612484565b9150509250929050565b60008115159050919050565b6128f8816128e3565b82525050565b612907816125d8565b82525050565b600081519050919050565b600082825260208201905092915050565b60005b8381101561294757808201518184015260208101905061292c565b60008484015250505050565b600061295e8261290d565b6129688185612918565b9350612978818560208601612929565b61298181612620565b840191505092915050565b6129958161275c565b82525050565b6000610160820190506129b1600083018e612879565b6129be602083018d6128ef565b6129cb604083018c6128ef565b6129d8606083018b6128fe565b81810360808301526129ea818a612953565b90506129f960a083018961298c565b81810360c0830152612a0b8188612953565b905081810360e0830152612a1f8187612953565b9050612a2f610100830186612879565b612a3d610120830185612879565b612a4b61014083018461298c565b9c9b505050505050505050505050565b600060ff82169050919050565b612a7181612a5b565b82525050565b6000608082019050612a8c6000830187612879565b612a9960208301866128ef565b612aa66040830185612a68565b612ab36060830184612879565b95945050505050565b60008060408385031215612ad357612ad2612459565b5b6000612ae185828601612484565b9250506020612af285828601612783565b9150509250929050565b6000604082019050612b116000830185612879565b612b1e6020830184612879565b9392505050565b612b2e81612a5b565b8114612b3957600080fd5b50565b600081359050612b4b81612b25565b92915050565b600080600080600080600060e0888a031215612b7057612b6f612459565b5b6000612b7e8a828b01612b3c565b9750506020612b8f8a828b01612484565b9650506040612ba08a828b01612601565b955050606088013567ffffffffffffffff811115612bc157612bc061245e565b5b612bcd8a828b0161272e565b945050608088013567ffffffffffffffff811115612bee57612bed61245e565b5b612bfa8a828b0161272e565b93505060a088013567ffffffffffffffff811115612c1b57612c1a61245e565b5b612c278a828b0161272e565b92505060c0612c388a828b01612484565b91505092959891949750929550565b612c5081612463565b82525050565b612c5f816128e3565b82525050565b612c6e816125d8565b82525050565b600082825260208201905092915050565b6000612c908261290d565b612c9a8185612c74565b9350612caa818560208601612929565b612cb381612620565b840191505092915050565b612cc78161275c565b82525050565b600081519050919050565b600082825260208201905092915050565b6000819050602082019050919050565b6000612d058383612c47565b60208301905092915050565b6000602082019050919050565b6000612d2982612ccd565b612d338185612cd8565b9350612d3e83612ce9565b8060005b83811015612d6f578151612d568882612cf9565b9750612d6183612d11565b925050600181019050612d42565b5085935050505092915050565b600061018083016000830151612d956000860182612c47565b506020830151612da86020860182612c56565b506040830151612dbb6040860182612c56565b506060830151612dce6060860182612c65565b5060808301518482036080860152612de68282612c85565b91505060a0830151612dfb60a0860182612cbe565b5060c083015184820360c0860152612e138282612c85565b91505060e083015184820360e0860152612e2d8282612c85565b915050610100830151612e44610100860182612c47565b50610120830151612e59610120860182612c47565b50610140830151612e6e610140860182612cbe565b50610160830151848203610160860152612e888282612d1e565b9150508091505092915050565b60006020820190508181036000830152612eaf8184612d7c565b905092915050565b600060208284031215612ecd57612ecc612459565b5b6000612edb84828501612783565b91505092915050565b7f4e487b7100000000000000000000000000000000000000000000000000000000600052603260045260246000fd5b7f4e487b7100000000000000000000000000000000000000000000000000000000600052601160045260246000fd5b6000612f4d82612463565b9150612f5883612463565b9250828202612f6681612463565b91508282048414831517612f7d57612f7c612f13565b5b5092915050565b6000819050919050565b6000819050919050565b6000612fb3612fae612fa984612f84565b612f8e565b61275c565b9050919050565b612fc381612f98565b82525050565b6000606082019050612fde6000830186612fba565b612feb6020830185612879565b612ff86040830184612879565b949350505050565b7f4976616c69642074616700000000000000000000000000000000000000000000600082015250565b6000613036600a83612918565b915061304182613000565b602082019050919050565b6000602082019050818103600083015261306581613029565b9050919050565b7f4e487b7100000000000000000000000000000000000000000000000000000000600052602260045260246000fd5b600060028204905060018216806130b357607f821691505b6020821081036130c6576130c561306c565b5b50919050565b60008190508160005260206000209050919050565b60006020601f8301049050919050565b600082821b905092915050565b60006008830261312e7fffffffffffffffffffffffffffffffffffffffffffffffffffffffffffffffff826130f1565b61313886836130f1565b95508019841693508086168417925050509392505050565b600061316b61316661316184612463565b612f8e565b612463565b9050919050565b6000819050919050565b61318583613150565b61319961319182613172565b8484546130fe565b825550505050565b600090565b6131ae6131a1565b6131b981848461317c565b505050565b5b818110156131dd576131d26000826131a6565b6001810190506131bf565b5050565b601f821115613222576131f3816130cc565b6131fc846130e1565b8101602085101561320b578190505b61321f613217856130e1565b8301826131be565b50505b505050565b600082821c905092915050565b600061324560001984600802613227565b1980831691505092915050565b600061325e8383613234565b9150826002028217905092915050565b6132778261290d565b67ffffffffffffffff8111156132905761328f612631565b5b61329a825461309b565b6132a58282856131e1565b600060209050601f8311600181146132d857600084156132c6578287015190505b6132d08582613252565b865550613338565b601f1984166132e6866130cc565b60005b8281101561330e578489015182556001820191506020850194506020810190506132e9565b8683101561332b5784890151613327601f891682613234565b8355505b6001600288020188555050505b505050505050565b600061334b82612463565b91507fffffffffffffffffffffffffffffffffffffffffffffffffffffffffffffffff820361337d5761337c612f13565b5b600182019050919050565b600081905092915050565b600061339e8261290d565b6133a88185613388565b93506133b8818560208601612929565b80840191505092915050565b60006133d08284613393565b915081905092915050565b60006133e682612463565b91506133f183612463565b925082820390508181111561340957613408612f13565b5b92915050565b60006080820190506134246000830187612879565b81810360208301526134368186612953565b9050818103604083015261344a8185612953565b90506134596060830184612879565b95945050505050565b7f596f7520617265206e6f7420746865206f776e6572206f66207468697320706f60008201527f7374000000000000000000000000000000000000000000000000000000000000602082015250565b60006134be602283612918565b91506134c982613462565b604082019050919050565b600060208201905081810360008301526134ed816134b1565b9050919050565b7f5468697320706f737420686173206265656e20666c61676765642066616c7365600082015250565b600061352a602083612918565b9150613535826134f4565b602082019050919050565b600060208201905081810360008301526135598161351d565b9050919050565b7f526174696e67206d7573742062652067726561746572207468616e2038352500600082015250565b6000613596601f83612918565b91506135a182613560565b602082019050919050565b600060208201905081810360008301526135c581613589565b9050919050565b7f5265706f7274206973207265667574656420616e642061726368697665640000600082015250565b6000613602601e83612918565b915061360d826135cc565b602082019050919050565b60006020820190508181036000830152613631816135f5565b9050919050565b600061365361364e61364984612a5b565b612f8e565b61275c565b9050919050565b61366381613638565b82525050565b600060608201905061367e600083018661365a565b61368b6020830185612879565b6136986040830184612879565b949350505050565b7f496e76616c696420696e64696365730000000000000000000000000000000000600082015250565b60006136d6600f83612918565b91506136e1826136a0565b602082019050919050565b60006020820190508181036000830152613705816136c9565b9050919050565b7f496e76616c696420746167000000000000000000000000000000000000000000600082015250565b6000613742600b83612918565b915061374d8261370c565b602082019050919050565b6000602082019050818103600083015261377181613735565b9050919050565b6000819050919050565b61379361378e82612463565b613778565b82525050565b60008160601b9050919050565b60006137b182613799565b9050919050565b60006137c3826137a6565b9050919050565b6137db6137d682612512565b6137b8565b82525050565b60006137ed8286613782565b6020820191506137fd8285613782565b60208201915061380d82846137ca565b601482019150819050949350505050565b7f4e487b7100000000000000000000000000000000000000000000000000000000600052601260045260246000fd5b600061385882612463565b915061386383612463565b9250826138735761387261381e565b5b828206905092915050565b60006138898261275c565b915063ffffffff820361389f5761389e612f13565b5b60018201905091905056fea26469706673582212209a63837eef1953c7e5f8a9a17c02c91453d6a89243153db5eafefa1496e9e46964736f6c63430008110033",
  "linkReferences": {},
  "deployedLinkReferences": {}
}