{
  "_format": "hh-sol-artifact-1",
  "contractName": "Article",
  "sourceName": "contracts/Article.sol",
  "abi": [
    {
      "inputs": [],
      "stateMutability": "payable",
      "type": "constructor"
    },
    {
      "anonymous": false,
      "inputs": [
        {
          "indexed": true,
          "internalType": "address",
          "name": "from",
          "type": "address"
        },
        {
          "indexed": true,
          "internalType": "string",
          "name": "newsLang",
          "type": "string"
        },
        {
          "indexed": true,
          "internalType": "uint32",
          "name": "tag",
          "type": "uint32"
        },
        {
          "indexed": false,
          "internalType": "string",
          "name": "headline",
          "type": "string"
        },
        {
          "indexed": false,
          "internalType": "string",
          "name": "content",
          "type": "string"
        },
        {
          "indexed": false,
          "internalType": "uint256",
          "name": "timestamp",
          "type": "uint256"
        }
      ],
      "name": "post",
      "type": "event"
    },
    {
      "anonymous": false,
      "inputs": [
        {
          "indexed": false,
          "internalType": "uint32",
          "name": "tag",
          "type": "uint32"
        },
        {
          "indexed": false,
          "internalType": "uint256",
          "name": "id",
          "type": "uint256"
        },
        {
          "indexed": false,
          "internalType": "uint256",
          "name": "penalty",
          "type": "uint256"
        }
      ],
      "name": "refuteArticle",
      "type": "event"
    },
    {
      "anonymous": false,
      "inputs": [
        {
          "indexed": true,
          "internalType": "uint256",
          "name": "id",
          "type": "uint256"
        },
        {
          "components": [
            {
              "internalType": "uint256",
              "name": "id",
              "type": "uint256"
            },
            {
              "internalType": "bool",
              "name": "isReportPost",
              "type": "bool"
            },
            {
              "internalType": "bool",
              "name": "truth",
              "type": "bool"
            },
            {
              "internalType": "address payable",
              "name": "from",
              "type": "address"
            },
            {
              "internalType": "string",
              "name": "newsLang",
              "type": "string"
            },
            {
              "internalType": "uint32",
              "name": "tag",
              "type": "uint32"
            },
            {
              "internalType": "string",
              "name": "headline",
              "type": "string"
            },
            {
              "internalType": "string",
              "name": "content",
              "type": "string"
            },
            {
              "internalType": "uint256",
              "name": "timestamp",
              "type": "uint256"
            },
            {
              "internalType": "uint256",
              "name": "rating",
              "type": "uint256"
            },
            {
              "internalType": "uint32",
              "name": "interactions",
              "type": "uint32"
            },
            {
              "internalType": "uint256[]",
              "name": "reports",
              "type": "uint256[]"
            }
          ],
          "indexed": false,
          "internalType": "struct Article.Post",
          "name": "post",
          "type": "tuple"
        }
      ],
      "name": "viewPost",
      "type": "event"
    },
    {
      "stateMutability": "payable",
      "type": "fallback"
    },
    {
      "inputs": [
        {
          "internalType": "uint256",
          "name": "",
          "type": "uint256"
        },
        {
          "internalType": "uint256",
          "name": "",
          "type": "uint256"
        }
      ],
      "name": "Posts",
      "outputs": [
        {
          "internalType": "uint256",
          "name": "id",
          "type": "uint256"
        },
        {
          "internalType": "bool",
          "name": "isReportPost",
          "type": "bool"
        },
        {
          "internalType": "bool",
          "name": "truth",
          "type": "bool"
        },
        {
          "internalType": "address payable",
          "name": "from",
          "type": "address"
        },
        {
          "internalType": "string",
          "name": "newsLang",
          "type": "string"
        },
        {
          "internalType": "uint32",
          "name": "tag",
          "type": "uint32"
        },
        {
          "internalType": "string",
          "name": "headline",
          "type": "string"
        },
        {
          "internalType": "string",
          "name": "content",
          "type": "string"
        },
        {
          "internalType": "uint256",
          "name": "timestamp",
          "type": "uint256"
        },
        {
          "internalType": "uint256",
          "name": "rating",
          "type": "uint256"
        },
        {
          "internalType": "uint32",
          "name": "interactions",
          "type": "uint32"
        }
      ],
      "stateMutability": "view",
      "type": "function"
    },
    {
      "inputs": [
        {
          "internalType": "uint256",
          "name": "",
          "type": "uint256"
        }
      ],
      "name": "Reports",
      "outputs": [
        {
          "internalType": "uint256",
          "name": "id",
          "type": "uint256"
        },
        {
          "internalType": "bool",
          "name": "isArchived",
          "type": "bool"
        },
        {
          "internalType": "uint8",
          "name": "reportPostTag",
          "type": "uint8"
        },
        {
          "internalType": "uint256",
          "name": "reportPostID",
          "type": "uint256"
        }
      ],
      "stateMutability": "view",
      "type": "function"
    },
    {
      "inputs": [
        {
          "internalType": "uint256",
          "name": "id",
          "type": "uint256"
        }
      ],
      "name": "confirmReport",
      "outputs": [],
      "stateMutability": "nonpayable",
      "type": "function"
    },
    {
      "inputs": [
        {
          "internalType": "uint256",
          "name": "id",
          "type": "uint256"
        },
        {
          "internalType": "uint32",
          "name": "tag",
          "type": "uint32"
        }
      ],
      "name": "getPostByID",
      "outputs": [
        {
          "components": [
            {
              "internalType": "uint256",
              "name": "id",
              "type": "uint256"
            },
            {
              "internalType": "bool",
              "name": "isReportPost",
              "type": "bool"
            },
            {
              "internalType": "bool",
              "name": "truth",
              "type": "bool"
            },
            {
              "internalType": "address payable",
              "name": "from",
              "type": "address"
            },
            {
              "internalType": "string",
              "name": "newsLang",
              "type": "string"
            },
            {
              "internalType": "uint32",
              "name": "tag",
              "type": "uint32"
            },
            {
              "internalType": "string",
              "name": "headline",
              "type": "string"
            },
            {
              "internalType": "string",
              "name": "content",
              "type": "string"
            },
            {
              "internalType": "uint256",
              "name": "timestamp",
              "type": "uint256"
            },
            {
              "internalType": "uint256",
              "name": "rating",
              "type": "uint256"
            },
            {
              "internalType": "uint32",
              "name": "interactions",
              "type": "uint32"
            },
            {
              "internalType": "uint256[]",
              "name": "reports",
              "type": "uint256[]"
            }
          ],
          "internalType": "struct Article.Post",
          "name": "result",
          "type": "tuple"
        }
      ],
      "stateMutability": "view",
      "type": "function"
    },
    {
      "inputs": [
        {
          "internalType": "uint32[]",
          "name": "tags",
          "type": "uint32[]"
        }
      ],
      "name": "getPostByTags",
      "outputs": [],
      "stateMutability": "payable",
      "type": "function"
    },
    {
      "inputs": [
        {
          "internalType": "address payable",
          "name": "from",
          "type": "address"
        },
        {
          "internalType": "string",
          "name": "newsLang",
          "type": "string"
        },
        {
          "internalType": "uint32",
          "name": "tag",
          "type": "uint32"
        },
        {
          "internalType": "string",
          "name": "headline",
          "type": "string"
        },
        {
          "internalType": "string",
          "name": "content",
          "type": "string"
        },
        {
          "internalType": "uint256",
          "name": "rating",
          "type": "uint256"
        }
      ],
      "name": "postArticle",
      "outputs": [],
      "stateMutability": "nonpayable",
      "type": "function"
    },
    {
      "inputs": [
        {
          "internalType": "uint256",
          "name": "",
          "type": "uint256"
        }
      ],
      "name": "postCount",
      "outputs": [
        {
          "internalType": "uint256",
          "name": "",
          "type": "uint256"
        }
      ],
      "stateMutability": "view",
      "type": "function"
    },
    {
      "inputs": [
        {
          "internalType": "uint256",
          "name": "id",
          "type": "uint256"
        }
      ],
      "name": "refuteReport",
      "outputs": [],
      "stateMutability": "nonpayable",
      "type": "function"
    },
    {
      "inputs": [
        {
          "internalType": "uint8",
          "name": "reportPostTag",
          "type": "uint8"
        },
        {
          "internalType": "uint256",
          "name": "reportPostID",
          "type": "uint256"
        },
        {
          "internalType": "address payable",
          "name": "from",
          "type": "address"
        },
        {
          "internalType": "string",
          "name": "newsLang",
          "type": "string"
        },
        {
          "internalType": "string",
          "name": "headline",
          "type": "string"
        },
        {
          "internalType": "string",
          "name": "content",
          "type": "string"
        },
        {
          "internalType": "uint256",
          "name": "rating",
          "type": "uint256"
        }
      ],
      "name": "reportArticle",
      "outputs": [],
      "stateMutability": "nonpayable",
      "type": "function"
    },
    {
      "inputs": [],
      "name": "reportCount",
      "outputs": [
        {
          "internalType": "uint256",
          "name": "",
          "type": "uint256"
        }
      ],
      "stateMutability": "view",
      "type": "function"
    },
    {
      "inputs": [
        {
          "internalType": "uint256",
          "name": "id",
          "type": "uint256"
        }
      ],
      "name": "viewConfirmations",
      "outputs": [
        {
          "internalType": "address[]",
          "name": "",
          "type": "address[]"
        }
      ],
      "stateMutability": "view",
      "type": "function"
    },
    {
      "inputs": [
        {
          "internalType": "uint256",
          "name": "id",
          "type": "uint256"
        },
        {
          "internalType": "uint32",
          "name": "tag",
          "type": "uint32"
        }
      ],
      "name": "withdraw",
      "outputs": [],
      "stateMutability": "payable",
      "type": "function"
    },
    {
      "stateMutability": "payable",
      "type": "receive"
    }
  ],
  "bytecode": "0x60806040526000600855620f424060095564e8d4a51000600a55336000806101000a81548173ffffffffffffffffffffffffffffffffffffffff021916908373ffffffffffffffffffffffffffffffffffffffff160217905550613c63806100686000396000f3fe6080604052600436106100ab5760003560e01c8063467f2cd811610064578063467f2cd8146101f25780636145d1b71461023257806361c445d11461024e578063bd0257491461026a578063e6876ecc14610293578063f25060d2146102bc576100b2565b80630e07f901146100b45780630f6b75d6146100dd5780630fabb8a81461011a578063185c6f8414610143578063284837881461016e57806345c55e47146101ab576100b2565b366100b257005b005b3480156100c057600080fd5b506100db60048036038101906100d6919061230a565b6102f9565b005b3480156100e957600080fd5b5061010460048036038101906100ff919061230a565b610544565b6040516101119190612427565b60405180910390f35b34801561012657600080fd5b50610141600480360381019061013c9190612609565b6105e8565b005b34801561014f57600080fd5b50610158610971565b60405161016591906126f9565b60405180910390f35b34801561017a57600080fd5b506101956004803603810190610190919061230a565b610977565b6040516101a291906126f9565b60405180910390f35b3480156101b757600080fd5b506101d260048036038101906101cd9190612714565b610992565b6040516101e99b9a9998979695949392919061280c565b60405180910390f35b3480156101fe57600080fd5b506102196004803603810190610214919061230a565b610bee565b60405161022994939291906128e8565b60405180910390f35b61024c6004803603810190610247919061292d565b610c38565b005b61026860048036038101906102639190612a35565b611119565b005b34801561027657600080fd5b50610291600480360381019061028c9190612aaa565b611439565b005b34801561029f57600080fd5b506102ba60048036038101906102b5919061230a565b611916565b005b3480156102c857600080fd5b506102e360048036038101906102de919061292d565b611cfc565b6040516102f09190612dee565b60405180910390f35b61039d336012600084815260200190815260200160002060040180548060200260200160405190810160405280929190818152602001828054801561039357602002820191906000526020600020905b8160009054906101000a900473ffffffffffffffffffffffffffffffffffffffff1673ffffffffffffffffffffffffffffffffffffffff1681526020019060010190808311610349575b50505050506120b2565b156103a757600080fd5b60126000828152602001908152602001600020600401339080600181540180825580915050600190039060005260206000200160009091909190916101000a81548173ffffffffffffffffffffffffffffffffffffffff021916908373ffffffffffffffffffffffffffffffffffffffff160217905550600a601260008381526020019081526020016000206004018054905003610541576000600b60006007811061045657610455612e10565b5b01600083815260200190815260200160002060080160009054906101000a900463ffffffff1663ffffffff16600a5461048f9190612e6e565b90507fec7a6d51f9e94386ae3c020b954f8b4aabd4ec48d601a0ec75197fc24a74b602600083836040516104c593929190612ef5565b60405180910390a16000600b6000600781106104e4576104e3612e10565b5b01600084815260200190815260200160002060010160016101000a81548160ff02191690831515021790555060016012600084815260200190815260200160002060010160006101000a81548160ff021916908315150217905550505b50565b6060601260008381526020019081526020016000206003018054806020026020016040519081016040528092919081815260200182805480156105dc57602002820191906000526020600020905b8160009054906101000a900473ffffffffffffffffffffffffffffffffffffffff1673ffffffffffffffffffffffffffffffffffffffff1681526020019060010190808311610592575b50505050509050919050565b600763ffffffff168463ffffffff1610801561060b575060008463ffffffff1610155b61064a576040517f08c379a000000000000000000000000000000000000000000000000000000000815260040161064190612f78565b60405180910390fd5b60405180610180016040528060018663ffffffff16600781106106705761066f612e10565b5b015481526020016000151581526020016001151581526020018773ffffffffffffffffffffffffffffffffffffffff1681526020018681526020018563ffffffff168152602001848152602001838152602001428152602001828152602001600063ffffffff168152602001600a67ffffffffffffffff8111156106f7576106f66124a2565b5b6040519080825280602002602001820160405280156107255781602001602082028036833780820191505090505b50815250600b8563ffffffff166007811061074357610742612e10565b5b01600060018763ffffffff16600781106107605761075f612e10565b5b015481526020019081526020016000206000820151816000015560208201518160010160006101000a81548160ff02191690831515021790555060408201518160010160016101000a81548160ff02191690831515021790555060608201518160010160026101000a81548173ffffffffffffffffffffffffffffffffffffffff021916908373ffffffffffffffffffffffffffffffffffffffff1602179055506080820151816002019081610816919061319a565b5060a08201518160030160006101000a81548163ffffffff021916908363ffffffff16021790555060c0820151816004019081610853919061319a565b5060e0820151816005019081610869919061319a565b50610100820151816006015561012082015181600701556101408201518160080160006101000a81548163ffffffff021916908363ffffffff1602179055506101608201518160090190805190602001906108c5929190612145565b5090505060018463ffffffff16600781106108e3576108e2612e10565b5b0160008154809291906108f59061326c565b91905055508363ffffffff168560405161090f91906132f0565b60405180910390208773ffffffffffffffffffffffffffffffffffffffff167f63f7de17f3a4d05e1bec1ecec8b9ed9736800f80c91fd8fed341f75f76d89a7c86864260405161096193929190613307565b60405180910390a4505050505050565b60085481565b6001816007811061098757600080fd5b016000915090505481565b600b82600781106109a257600080fd5b01602052806000526040600020600091509150508060000154908060010160009054906101000a900460ff16908060010160019054906101000a900460ff16908060010160029054906101000a900473ffffffffffffffffffffffffffffffffffffffff1690806002018054610a1790612fc7565b80601f0160208091040260200160405190810160405280929190818152602001828054610a4390612fc7565b8015610a905780601f10610a6557610100808354040283529160200191610a90565b820191906000526020600020905b815481529060010190602001808311610a7357829003601f168201915b5050505050908060030160009054906101000a900463ffffffff1690806004018054610abb90612fc7565b80601f0160208091040260200160405190810160405280929190818152602001828054610ae790612fc7565b8015610b345780601f10610b0957610100808354040283529160200191610b34565b820191906000526020600020905b815481529060010190602001808311610b1757829003601f168201915b505050505090806005018054610b4990612fc7565b80601f0160208091040260200160405190810160405280929190818152602001828054610b7590612fc7565b8015610bc25780601f10610b9757610100808354040283529160200191610bc2565b820191906000526020600020905b815481529060010190602001808311610ba557829003601f168201915b5050505050908060060154908060070154908060080160009054906101000a900463ffffffff1690508b565b60126020528060005260406000206000915090508060000154908060010160009054906101000a900460ff16908060010160019054906101000a900460ff16908060020154905084565b6000600b8263ffffffff1660078110610c5457610c53612e10565b5b01600084815260200190815260200160002060405180610180016040529081600082015481526020016001820160009054906101000a900460ff161515151581526020016001820160019054906101000a900460ff161515151581526020016001820160029054906101000a900473ffffffffffffffffffffffffffffffffffffffff1673ffffffffffffffffffffffffffffffffffffffff1673ffffffffffffffffffffffffffffffffffffffff168152602001600282018054610d1890612fc7565b80601f0160208091040260200160405190810160405280929190818152602001828054610d4490612fc7565b8015610d915780601f10610d6657610100808354040283529160200191610d91565b820191906000526020600020905b815481529060010190602001808311610d7457829003601f168201915b505050505081526020016003820160009054906101000a900463ffffffff1663ffffffff1663ffffffff168152602001600482018054610dd090612fc7565b80601f0160208091040260200160405190810160405280929190818152602001828054610dfc90612fc7565b8015610e495780601f10610e1e57610100808354040283529160200191610e49565b820191906000526020600020905b815481529060010190602001808311610e2c57829003601f168201915b50505050508152602001600582018054610e6290612fc7565b80601f0160208091040260200160405190810160405280929190818152602001828054610e8e90612fc7565b8015610edb5780601f10610eb057610100808354040283529160200191610edb565b820191906000526020600020905b815481529060010190602001808311610ebe57829003601f168201915b5050505050815260200160068201548152602001600782015481526020016008820160009054906101000a900463ffffffff1663ffffffff1663ffffffff16815260200160098201805480602002602001604051908101604052809291908181526020018280548015610f6d57602002820191906000526020600020905b815481526020019060010190808311610f59575b50505050508152505090503373ffffffffffffffffffffffffffffffffffffffff16816060015173ffffffffffffffffffffffffffffffffffffffff1614610fea576040517f08c379a0000000000000000000000000000000000000000000000000000000008152600401610fe1906133be565b60405180910390fd5b600b8263ffffffff166007811061100457611003612e10565b5b01600084815260200190815260200160002060010160019054906101000a900460ff16611066576040517f08c379a000000000000000000000000000000000000000000000000000000000815260040161105d9061342a565b60405180910390fd5b600b8263ffffffff16600781106110805761107f612e10565b5b01600084815260200190815260200160002060010160029054906101000a900473ffffffffffffffffffffffffffffffffffffffff1673ffffffffffffffffffffffffffffffffffffffff166108fc60095483610140015163ffffffff166110e89190612e6e565b9081150290604051600060405180830381858888f19350505050158015611113573d6000803e3d6000fd5b50505050565b60005b81518160ff1610156111d757600763ffffffff16828260ff168151811061114657611145612e10565b5b602002602001015163ffffffff1610801561118557506000828260ff168151811061117457611173612e10565b5b602002602001015163ffffffff1610155b6111c4576040517f08c379a00000000000000000000000000000000000000000000000000000000081526004016111bb90613496565b60405180910390fd5b80806111cf906134b6565b91505061111c565b600080600092505b600084514244336040516020016111f893929190613548565b6040516020818303038152906040528051906020012060001c61121b91906135b4565b9050848163ffffffff168151811061123657611235612e10565b5b6020026020010151925060018363ffffffff166007811061125a57611259612e10565b5b015442443360405160200161127193929190613548565b6040516020818303038152906040528051906020012060001c61129491906135b4565b915083806112a1906134b6565b94505050600060018363ffffffff16600781106112c1576112c0612e10565b5b01541480156113095750600b8263ffffffff16600781106112e5576112e4612e10565b5b01600082815260200190815260200160002060010160019054906101000a900460ff165b80156113185750600b8360ff16105b6111df57600b8360ff1610611362576040517f08c379a000000000000000000000000000000000000000000000000000000000815260040161135990613631565b60405180910390fd5b600b8263ffffffff166007811061137c5761137b612e10565b5b016000828152602001908152602001600020600801600081819054906101000a900463ffffffff16809291906113b190613651565b91906101000a81548163ffffffff021916908363ffffffff16021790555050437f840acb1e8b61ca73a71cdcc72dac3c3b3bff8979af6bd9cc3d5bf1fb6a76393d600b8463ffffffff166007811061140c5761140b612e10565b5b01600084815260200190815260200160002060405161142b91906139f3565b60405180910390a250505050565b630510ff40811161147f576040517f08c379a000000000000000000000000000000000000000000000000000000000815260040161147690613a61565b60405180910390fd5b60405180610180016040528060085481526020016001151581526020016001151581526020018673ffffffffffffffffffffffffffffffffffffffff168152602001858152602001600063ffffffff168152602001848152602001838152602001428152602001828152602001600063ffffffff168152602001600a67ffffffffffffffff811115611514576115136124a2565b5b6040519080825280602002602001820160405280156115425781602001602082028036833780820191505090505b50815250600b60006007811061155b5761155a612e10565b5b01600060085481526020019081526020016000206000820151816000015560208201518160010160006101000a81548160ff02191690831515021790555060408201518160010160016101000a81548160ff02191690831515021790555060608201518160010160026101000a81548173ffffffffffffffffffffffffffffffffffffffff021916908373ffffffffffffffffffffffffffffffffffffffff1602179055506080820151816002019081611615919061319a565b5060a08201518160030160006101000a81548163ffffffff021916908363ffffffff16021790555060c0820151816004019081611652919061319a565b5060e0820151816005019081611668919061319a565b50610100820151816006015561012082015181600701556101408201518160080160006101000a81548163ffffffff021916908363ffffffff1602179055506101608201518160090190805190602001906116c4929190612145565b509050506040518060c0016040528060085481526020016000151581526020018860ff168152602001878152602001600067ffffffffffffffff81111561170e5761170d6124a2565b5b60405190808252806020026020018201604052801561173c5781602001602082028036833780820191505090505b508152602001600067ffffffffffffffff81111561175d5761175c6124a2565b5b60405190808252806020026020018201604052801561178b5781602001602082028036833780820191505090505b508152506012600060085481526020019081526020016000206000820151816000015560208201518160010160006101000a81548160ff02191690831515021790555060408201518160010160016101000a81548160ff021916908360ff160217905550606082015181600201556080820151816003019080519060200190611815929190612192565b5060a0820151816004019080519060200190611832929190612192565b50905050600b8760ff166007811061184d5761184c612e10565b5b01600087815260200190815260200160002060090160085490806001815401808255809150506001900390600052602060002001600090919091909150556008600081548092919061189e9061326c565b91905055506000846040516118b391906132f0565b60405180910390208673ffffffffffffffffffffffffffffffffffffffff167f63f7de17f3a4d05e1bec1ecec8b9ed9736800f80c91fd8fed341f75f76d89a7c86864260405161190593929190613307565b60405180910390a450505050505050565b600b60006007811061192b5761192a612e10565b5b01600082815260200190815260200160002060010160029054906101000a900473ffffffffffffffffffffffffffffffffffffffff1673ffffffffffffffffffffffffffffffffffffffff163373ffffffffffffffffffffffffffffffffffffffff160361199857600080fd5b611a3c3360126000848152602001908152602001600020600301805480602002602001604051908101604052809291908181526020018280548015611a3257602002820191906000526020600020905b8160009054906101000a900473ffffffffffffffffffffffffffffffffffffffff1673ffffffffffffffffffffffffffffffffffffffff16815260200190600101908083116119e8575b50505050506120b2565b15611a7c576040517f08c379a0000000000000000000000000000000000000000000000000000000008152600401611a7390613acd565b60405180910390fd5b6012600082815260200190815260200160002060010160009054906101000a900460ff1615611ae0576040517f08c379a0000000000000000000000000000000000000000000000000000000008152600401611ad790613b39565b60405180910390fd5b60126000828152602001908152602001600020600301339080600181540180825580915050600190039060005260206000200160009091909190916101000a81548173ffffffffffffffffffffffffffffffffffffffff021916908373ffffffffffffffffffffffffffffffffffffffff160217905550600a601260008381526020019081526020016000206003018054905003611cf9576000600b6012600084815260200190815260200160002060010160019054906101000a900460ff1660ff1660078110611bb457611bb3612e10565b5b0160006012600085815260200190815260200160002060020154815260200190815260200160002060080160009054906101000a900463ffffffff1663ffffffff16600a54611c039190612e6e565b90507fec7a6d51f9e94386ae3c020b954f8b4aabd4ec48d601a0ec75197fc24a74b6026012600084815260200190815260200160002060010160019054906101000a900460ff16601260008581526020019081526020016000206002015483604051611c7193929190613b8a565b60405180910390a16000600b6012600085815260200190815260200160002060010160019054906101000a900460ff1660ff1660078110611cb557611cb4612e10565b5b0160006012600086815260200190815260200160002060020154815260200190815260200160002060010160016101000a81548160ff021916908315150217905550505b50565b611d0461221c565b60008310158015611d2f575060018263ffffffff1660078110611d2a57611d29612e10565b5b015483105b611d6e576040517f08c379a0000000000000000000000000000000000000000000000000000000008152600401611d6590613c0d565b60405180910390fd5b600b8263ffffffff1660078110611d8857611d87612e10565b5b01600084815260200190815260200160002060405180610180016040529081600082015481526020016001820160009054906101000a900460ff161515151581526020016001820160019054906101000a900460ff161515151581526020016001820160029054906101000a900473ffffffffffffffffffffffffffffffffffffffff1673ffffffffffffffffffffffffffffffffffffffff1673ffffffffffffffffffffffffffffffffffffffff168152602001600282018054611e4c90612fc7565b80601f0160208091040260200160405190810160405280929190818152602001828054611e7890612fc7565b8015611ec55780601f10611e9a57610100808354040283529160200191611ec5565b820191906000526020600020905b815481529060010190602001808311611ea857829003601f168201915b505050505081526020016003820160009054906101000a900463ffffffff1663ffffffff1663ffffffff168152602001600482018054611f0490612fc7565b80601f0160208091040260200160405190810160405280929190818152602001828054611f3090612fc7565b8015611f7d5780601f10611f5257610100808354040283529160200191611f7d565b820191906000526020600020905b815481529060010190602001808311611f6057829003601f168201915b50505050508152602001600582018054611f9690612fc7565b80601f0160208091040260200160405190810160405280929190818152602001828054611fc290612fc7565b801561200f5780601f10611fe45761010080835404028352916020019161200f565b820191906000526020600020905b815481529060010190602001808311611ff257829003601f168201915b5050505050815260200160068201548152602001600782015481526020016008820160009054906101000a900463ffffffff1663ffffffff1663ffffffff168152602001600982018054806020026020016040519081016040528092919081815260200182805480156120a157602002820191906000526020600020905b81548152602001906001019080831161208d575b505050505081525050905092915050565b600080600090505b82518163ffffffff16101561213957828163ffffffff16815181106120e2576120e1612e10565b5b602002602001015173ffffffffffffffffffffffffffffffffffffffff168473ffffffffffffffffffffffffffffffffffffffff160361212657600191505061213f565b808061213190613651565b9150506120ba565b50600090505b92915050565b828054828255906000526020600020908101928215612181579160200282015b82811115612180578251825591602001919060010190612165565b5b50905061218e91906122a3565b5090565b82805482825590600052602060002090810192821561220b579160200282015b8281111561220a5782518260006101000a81548173ffffffffffffffffffffffffffffffffffffffff021916908373ffffffffffffffffffffffffffffffffffffffff160217905550916020019190600101906121b2565b5b50905061221891906122a3565b5090565b60405180610180016040528060008152602001600015158152602001600015158152602001600073ffffffffffffffffffffffffffffffffffffffff16815260200160608152602001600063ffffffff16815260200160608152602001606081526020016000815260200160008152602001600063ffffffff168152602001606081525090565b5b808211156122bc5760008160009055506001016122a4565b5090565b6000604051905090565b600080fd5b600080fd5b6000819050919050565b6122e7816122d4565b81146122f257600080fd5b50565b600081359050612304816122de565b92915050565b6000602082840312156123205761231f6122ca565b5b600061232e848285016122f5565b91505092915050565b600081519050919050565b600082825260208201905092915050565b6000819050602082019050919050565b600073ffffffffffffffffffffffffffffffffffffffff82169050919050565b600061238e82612363565b9050919050565b61239e81612383565b82525050565b60006123b08383612395565b60208301905092915050565b6000602082019050919050565b60006123d482612337565b6123de8185612342565b93506123e983612353565b8060005b8381101561241a57815161240188826123a4565b975061240c836123bc565b9250506001810190506123ed565b5085935050505092915050565b6000602082019050818103600083015261244181846123c9565b905092915050565b600061245482612363565b9050919050565b61246481612449565b811461246f57600080fd5b50565b6000813590506124818161245b565b92915050565b600080fd5b600080fd5b6000601f19601f8301169050919050565b7f4e487b7100000000000000000000000000000000000000000000000000000000600052604160045260246000fd5b6124da82612491565b810181811067ffffffffffffffff821117156124f9576124f86124a2565b5b80604052505050565b600061250c6122c0565b905061251882826124d1565b919050565b600067ffffffffffffffff821115612538576125376124a2565b5b61254182612491565b9050602081019050919050565b82818337600083830152505050565b600061257061256b8461251d565b612502565b90508281526020810184848401111561258c5761258b61248c565b5b61259784828561254e565b509392505050565b600082601f8301126125b4576125b3612487565b5b81356125c484826020860161255d565b91505092915050565b600063ffffffff82169050919050565b6125e6816125cd565b81146125f157600080fd5b50565b600081359050612603816125dd565b92915050565b60008060008060008060c08789031215612626576126256122ca565b5b600061263489828a01612472565b965050602087013567ffffffffffffffff811115612655576126546122cf565b5b61266189828a0161259f565b955050604061267289828a016125f4565b945050606087013567ffffffffffffffff811115612693576126926122cf565b5b61269f89828a0161259f565b935050608087013567ffffffffffffffff8111156126c0576126bf6122cf565b5b6126cc89828a0161259f565b92505060a06126dd89828a016122f5565b9150509295509295509295565b6126f3816122d4565b82525050565b600060208201905061270e60008301846126ea565b92915050565b6000806040838503121561272b5761272a6122ca565b5b6000612739858286016122f5565b925050602061274a858286016122f5565b9150509250929050565b60008115159050919050565b61276981612754565b82525050565b61277881612449565b82525050565b600081519050919050565b600082825260208201905092915050565b60005b838110156127b857808201518184015260208101905061279d565b60008484015250505050565b60006127cf8261277e565b6127d98185612789565b93506127e981856020860161279a565b6127f281612491565b840191505092915050565b612806816125cd565b82525050565b600061016082019050612822600083018e6126ea565b61282f602083018d612760565b61283c604083018c612760565b612849606083018b61276f565b818103608083015261285b818a6127c4565b905061286a60a08301896127fd565b81810360c083015261287c81886127c4565b905081810360e083015261289081876127c4565b90506128a06101008301866126ea565b6128ae6101208301856126ea565b6128bc6101408301846127fd565b9c9b505050505050505050505050565b600060ff82169050919050565b6128e2816128cc565b82525050565b60006080820190506128fd60008301876126ea565b61290a6020830186612760565b61291760408301856128d9565b61292460608301846126ea565b95945050505050565b60008060408385031215612944576129436122ca565b5b6000612952858286016122f5565b9250506020612963858286016125f4565b9150509250929050565b600067ffffffffffffffff821115612988576129876124a2565b5b602082029050602081019050919050565b600080fd5b60006129b16129ac8461296d565b612502565b905080838252602082019050602084028301858111156129d4576129d3612999565b5b835b818110156129fd57806129e988826125f4565b8452602084019350506020810190506129d6565b5050509392505050565b600082601f830112612a1c57612a1b612487565b5b8135612a2c84826020860161299e565b91505092915050565b600060208284031215612a4b57612a4a6122ca565b5b600082013567ffffffffffffffff811115612a6957612a686122cf565b5b612a7584828501612a07565b91505092915050565b612a87816128cc565b8114612a9257600080fd5b50565b600081359050612aa481612a7e565b92915050565b600080600080600080600060e0888a031215612ac957612ac86122ca565b5b6000612ad78a828b01612a95565b9750506020612ae88a828b016122f5565b9650506040612af98a828b01612472565b955050606088013567ffffffffffffffff811115612b1a57612b196122cf565b5b612b268a828b0161259f565b945050608088013567ffffffffffffffff811115612b4757612b466122cf565b5b612b538a828b0161259f565b93505060a088013567ffffffffffffffff811115612b7457612b736122cf565b5b612b808a828b0161259f565b92505060c0612b918a828b016122f5565b91505092959891949750929550565b612ba9816122d4565b82525050565b612bb881612754565b82525050565b612bc781612449565b82525050565b600082825260208201905092915050565b6000612be98261277e565b612bf38185612bcd565b9350612c0381856020860161279a565b612c0c81612491565b840191505092915050565b612c20816125cd565b82525050565b600081519050919050565b600082825260208201905092915050565b6000819050602082019050919050565b6000612c5e8383612ba0565b60208301905092915050565b6000602082019050919050565b6000612c8282612c26565b612c8c8185612c31565b9350612c9783612c42565b8060005b83811015612cc8578151612caf8882612c52565b9750612cba83612c6a565b925050600181019050612c9b565b5085935050505092915050565b600061018083016000830151612cee6000860182612ba0565b506020830151612d016020860182612baf565b506040830151612d146040860182612baf565b506060830151612d276060860182612bbe565b5060808301518482036080860152612d3f8282612bde565b91505060a0830151612d5460a0860182612c17565b5060c083015184820360c0860152612d6c8282612bde565b91505060e083015184820360e0860152612d868282612bde565b915050610100830151612d9d610100860182612ba0565b50610120830151612db2610120860182612ba0565b50610140830151612dc7610140860182612c17565b50610160830151848203610160860152612de18282612c77565b9150508091505092915050565b60006020820190508181036000830152612e088184612cd5565b905092915050565b7f4e487b7100000000000000000000000000000000000000000000000000000000600052603260045260246000fd5b7f4e487b7100000000000000000000000000000000000000000000000000000000600052601160045260246000fd5b6000612e79826122d4565b9150612e84836122d4565b9250828202612e92816122d4565b91508282048414831517612ea957612ea8612e3f565b5b5092915050565b6000819050919050565b6000819050919050565b6000612edf612eda612ed584612eb0565b612eba565b6125cd565b9050919050565b612eef81612ec4565b82525050565b6000606082019050612f0a6000830186612ee6565b612f1760208301856126ea565b612f2460408301846126ea565b949350505050565b7f4976616c69642074616700000000000000000000000000000000000000000000600082015250565b6000612f62600a83612789565b9150612f6d82612f2c565b602082019050919050565b60006020820190508181036000830152612f9181612f55565b9050919050565b7f4e487b7100000000000000000000000000000000000000000000000000000000600052602260045260246000fd5b60006002820490506001821680612fdf57607f821691505b602082108103612ff257612ff1612f98565b5b50919050565b60008190508160005260206000209050919050565b60006020601f8301049050919050565b600082821b905092915050565b60006008830261305a7fffffffffffffffffffffffffffffffffffffffffffffffffffffffffffffffff8261301d565b613064868361301d565b95508019841693508086168417925050509392505050565b600061309761309261308d846122d4565b612eba565b6122d4565b9050919050565b6000819050919050565b6130b18361307c565b6130c56130bd8261309e565b84845461302a565b825550505050565b600090565b6130da6130cd565b6130e58184846130a8565b505050565b5b81811015613109576130fe6000826130d2565b6001810190506130eb565b5050565b601f82111561314e5761311f81612ff8565b6131288461300d565b81016020851015613137578190505b61314b6131438561300d565b8301826130ea565b50505b505050565b600082821c905092915050565b600061317160001984600802613153565b1980831691505092915050565b600061318a8383613160565b9150826002028217905092915050565b6131a38261277e565b67ffffffffffffffff8111156131bc576131bb6124a2565b5b6131c68254612fc7565b6131d182828561310d565b600060209050601f83116001811461320457600084156131f2578287015190505b6131fc858261317e565b865550613264565b601f19841661321286612ff8565b60005b8281101561323a57848901518255600182019150602085019450602081019050613215565b868310156132575784890151613253601f891682613160565b8355505b6001600288020188555050505b505050505050565b6000613277826122d4565b91507fffffffffffffffffffffffffffffffffffffffffffffffffffffffffffffffff82036132a9576132a8612e3f565b5b600182019050919050565b600081905092915050565b60006132ca8261277e565b6132d481856132b4565b93506132e481856020860161279a565b80840191505092915050565b60006132fc82846132bf565b915081905092915050565b6000606082019050818103600083015261332181866127c4565b9050818103602083015261333581856127c4565b905061334460408301846126ea565b949350505050565b7f596f7520617265206e6f7420746865206f776e6572206f66207468697320706f60008201527f7374000000000000000000000000000000000000000000000000000000000000602082015250565b60006133a8602283612789565b91506133b38261334c565b604082019050919050565b600060208201905081810360008301526133d78161339b565b9050919050565b7f5468697320706f737420686173206265656e20666c61676765642066616c7365600082015250565b6000613414602083612789565b915061341f826133de565b602082019050919050565b6000602082019050818103600083015261344381613407565b9050919050565b7f496e76616c696420746167000000000000000000000000000000000000000000600082015250565b6000613480600b83612789565b915061348b8261344a565b602082019050919050565b600060208201905081810360008301526134af81613473565b9050919050565b60006134c1826128cc565b915060ff82036134d4576134d3612e3f565b5b600182019050919050565b6000819050919050565b6134fa6134f5826122d4565b6134df565b82525050565b60008160601b9050919050565b600061351882613500565b9050919050565b600061352a8261350d565b9050919050565b61354261353d82612383565b61351f565b82525050565b600061355482866134e9565b60208201915061356482856134e9565b6020820191506135748284613531565b601482019150819050949350505050565b7f4e487b7100000000000000000000000000000000000000000000000000000000600052601260045260246000fd5b60006135bf826122d4565b91506135ca836122d4565b9250826135da576135d9613585565b5b828206905092915050565b7f556e61626c6520746f2066696e6420706f737473000000000000000000000000600082015250565b600061361b601483612789565b9150613626826135e5565b602082019050919050565b6000602082019050818103600083015261364a8161360e565b9050919050565b600061365c826125cd565b915063ffffffff820361367257613671612e3f565b5b600182019050919050565b60008160001c9050919050565b6000819050919050565b60006136a76136a28361367d565b61368a565b9050919050565b600060ff82169050919050565b60006136ce6136c98361367d565b6136ae565b9050919050565b60008160081c9050919050565b60006136f56136f0836136d5565b6136ae565b9050919050565b60008160101c9050919050565b600073ffffffffffffffffffffffffffffffffffffffff82169050919050565b600061373c613737836136fc565b613709565b9050919050565b6000815461375081612fc7565b61375a8186612bcd565b94506001821660008114613775576001811461378b576137be565b60ff1983168652811515602002860193506137be565b61379485612ff8565b60005b838110156137b657815481890152600182019150602081019050613797565b808801955050505b50505092915050565b600063ffffffff82169050919050565b60006137ea6137e58361367d565b6137c7565b9050919050565b600081549050919050565b60008190508160005260206000209050919050565b600061381d8254613694565b9050919050565b6000600182019050919050565b600061383c826137f1565b6138468185612c31565b9350613851836137fc565b8060005b838110156138895761386682613811565b6138708882612c52565b975061387b83613824565b925050600181019050613855565b5085935050505092915050565b6000610180830160008084015490506138ae81613694565b6138bb6000870182612ba0565b50600184015490506138cc816136bb565b6138d96020870182612baf565b506138e3816136e2565b6138f06040870182612baf565b506138fa81613729565b6139076060870182612bbe565b5060028401858303608087015261391e8382613743565b92505060038401549050613931816137d7565b61393e60a0870182612c17565b506004840185830360c08701526139558382613743565b9250506005840185830360e087015261396e8382613743565b9250506006840154905061398181613694565b61398f610100870182612ba0565b50600784015490506139a081613694565b6139ae610120870182612ba0565b50600884015490506139bf816137d7565b6139cd610140870182612c17565b50600984018583036101608701526139e58382613831565b925050819250505092915050565b60006020820190508181036000830152613a0d8184613896565b905092915050565b7f526174696e67206d7573742062652067726561746572207468616e2038352500600082015250565b6000613a4b601f83612789565b9150613a5682613a15565b602082019050919050565b60006020820190508181036000830152613a7a81613a3e565b9050919050565b7f596f75206861766520616c726561647920636f6e6669726d6564000000000000600082015250565b6000613ab7601a83612789565b9150613ac282613a81565b602082019050919050565b60006020820190508181036000830152613ae681613aaa565b9050919050565b7f5265706f7274206973207265667574656420616e642061726368697665640000600082015250565b6000613b23601e83612789565b9150613b2e82613aed565b602082019050919050565b60006020820190508181036000830152613b5281613b16565b9050919050565b6000613b74613b6f613b6a846128cc565b612eba565b6125cd565b9050919050565b613b8481613b59565b82525050565b6000606082019050613b9f6000830186613b7b565b613bac60208301856126ea565b613bb960408301846126ea565b949350505050565b7f496e76616c696420696e64696365730000000000000000000000000000000000600082015250565b6000613bf7600f83612789565b9150613c0282613bc1565b602082019050919050565b60006020820190508181036000830152613c2681613bea565b905091905056fea26469706673582212201267c143000cb7cf7843066a6515ba7a6feae9ea62416a3fe4426467246a239864736f6c63430008110033",
  "linkReferences": {},
  "deployedLinkReferences": {}
}