{
  "_format": "hh-sol-artifact-1",
  "contractName": "Article",
  "sourceName": "contracts/Article.sol",
  "abi": [
    {
      "anonymous": false,
      "inputs": [
        {
          "indexed": true,
          "internalType": "address",
          "name": "from",
          "type": "address"
        },
        {
          "indexed": true,
          "internalType": "string",
          "name": "newsLang",
          "type": "string"
        },
        {
          "indexed": true,
          "internalType": "string[]",
          "name": "tags",
          "type": "string[]"
        },
        {
          "indexed": false,
          "internalType": "string",
          "name": "headline",
          "type": "string"
        },
        {
          "indexed": false,
          "internalType": "string",
          "name": "content",
          "type": "string"
        },
        {
          "indexed": false,
          "internalType": "uint256",
          "name": "timestamp",
          "type": "uint256"
        }
      ],
      "name": "post",
      "type": "event"
    },
    {
      "inputs": [
        {
          "internalType": "address",
          "name": "from",
          "type": "address"
        },
        {
          "internalType": "string",
          "name": "newsLang",
          "type": "string"
        },
        {
          "internalType": "string[]",
          "name": "tags",
          "type": "string[]"
        },
        {
          "internalType": "string",
          "name": "headline",
          "type": "string"
        },
        {
          "internalType": "string",
          "name": "content",
          "type": "string"
        }
      ],
      "name": "postNewsArticle",
      "outputs": [],
      "stateMutability": "nonpayable",
      "type": "function"
    }
  ],
  "bytecode": "0x608060405234801561001057600080fd5b506106c0806100206000396000f3fe608060405234801561001057600080fd5b506004361061002b5760003560e01c806360d8ab9914610030575b600080fd5b61004a6004803603810190610045919061036f565b61004c565b005b8260405161005a9190610578565b60405180910390208460405161007091906105cb565b60405180910390208673ffffffffffffffffffffffffffffffffffffffff167f10375726cc68a50072b4217e5f84d5f8b2337286d6e4c311d1adeb29b75ba5b18585426040516100c293929190610645565b60405180910390a45050505050565b6000604051905090565b600080fd5b600080fd5b600073ffffffffffffffffffffffffffffffffffffffff82169050919050565b6000610110826100e5565b9050919050565b61012081610105565b811461012b57600080fd5b50565b60008135905061013d81610117565b92915050565b600080fd5b600080fd5b6000601f19601f8301169050919050565b7f4e487b7100000000000000000000000000000000000000000000000000000000600052604160045260246000fd5b6101968261014d565b810181811067ffffffffffffffff821117156101b5576101b461015e565b5b80604052505050565b60006101c86100d1565b90506101d4828261018d565b919050565b600067ffffffffffffffff8211156101f4576101f361015e565b5b6101fd8261014d565b9050602081019050919050565b82818337600083830152505050565b600061022c610227846101d9565b6101be565b90508281526020810184848401111561024857610247610148565b5b61025384828561020a565b509392505050565b600082601f8301126102705761026f610143565b5b8135610280848260208601610219565b91505092915050565b600067ffffffffffffffff8211156102a4576102a361015e565b5b602082029050602081019050919050565b600080fd5b60006102cd6102c884610289565b6101be565b905080838252602082019050602084028301858111156102f0576102ef6102b5565b5b835b8181101561033757803567ffffffffffffffff81111561031557610314610143565b5b808601610322898261025b565b855260208501945050506020810190506102f2565b5050509392505050565b600082601f83011261035657610355610143565b5b81356103668482602086016102ba565b91505092915050565b600080600080600060a0868803121561038b5761038a6100db565b5b60006103998882890161012e565b955050602086013567ffffffffffffffff8111156103ba576103b96100e0565b5b6103c68882890161025b565b945050604086013567ffffffffffffffff8111156103e7576103e66100e0565b5b6103f388828901610341565b935050606086013567ffffffffffffffff811115610414576104136100e0565b5b6104208882890161025b565b925050608086013567ffffffffffffffff811115610441576104406100e0565b5b61044d8882890161025b565b9150509295509295909350565b600081519050919050565b600081905092915050565b6000819050602082019050919050565b600081519050919050565b600081905092915050565b60005b838110156104b4578082015181840152602081019050610499565b60008484015250505050565b60006104cb82610480565b6104d5818561048b565b93506104e5818560208601610496565b6104ee8161014d565b840191505092915050565b600061050583836104c0565b905092915050565b6000602082019050919050565b60006105258261045a565b61052f8185610465565b935061053a83610470565b8060005b8381101561056b57815161055288826104f9565b975061055d8361050d565b92505060018101905061053e565b5085935050505092915050565b6000610584828461051a565b915081905092915050565b600081905092915050565b60006105a582610480565b6105af818561058f565b93506105bf818560208601610496565b80840191505092915050565b60006105d7828461059a565b915081905092915050565b600082825260208201905092915050565b60006105fe82610480565b61060881856105e2565b9350610618818560208601610496565b6106218161014d565b840191505092915050565b6000819050919050565b61063f8161062c565b82525050565b6000606082019050818103600083015261065f81866105f3565b9050818103602083015261067381856105f3565b90506106826040830184610636565b94935050505056fea2646970667358221220b8ed62e6572b0d0f938fb7c716dd7f4a2f30cbf804b2c13d0aa4009441611bde64736f6c63430008110033",
  "linkReferences": {},
  "deployedLinkReferences": {}
}