{
  "_format": "hh-sol-artifact-1",
  "contractName": "Article",
  "sourceName": "contracts/Article.sol",
  "abi": [
    {
      "inputs": [],
      "stateMutability": "payable",
      "type": "constructor"
    },
    {
      "anonymous": false,
      "inputs": [
        {
          "indexed": false,
          "internalType": "uint256",
          "name": "id",
          "type": "uint256"
        },
        {
          "indexed": true,
          "internalType": "address",
          "name": "from",
          "type": "address"
        },
        {
          "indexed": true,
          "internalType": "string",
          "name": "newsLang",
          "type": "string"
        },
        {
          "indexed": true,
          "internalType": "uint32",
          "name": "tag",
          "type": "uint32"
        },
        {
          "indexed": false,
          "internalType": "string",
          "name": "headline",
          "type": "string"
        },
        {
          "indexed": false,
          "internalType": "string",
          "name": "content",
          "type": "string"
        },
        {
          "indexed": false,
          "internalType": "uint256",
          "name": "timestamp",
          "type": "uint256"
        }
      ],
      "name": "post",
      "type": "event"
    },
    {
      "anonymous": false,
      "inputs": [
        {
          "indexed": false,
          "internalType": "uint32",
          "name": "tag",
          "type": "uint32"
        },
        {
          "indexed": false,
          "internalType": "uint256",
          "name": "id",
          "type": "uint256"
        },
        {
          "indexed": false,
          "internalType": "uint256",
          "name": "penalty",
          "type": "uint256"
        }
      ],
      "name": "refuteArticle",
      "type": "event"
    },
    {
      "anonymous": false,
      "inputs": [
        {
          "indexed": true,
          "internalType": "uint256",
          "name": "id",
          "type": "uint256"
        },
        {
          "components": [
            {
              "internalType": "uint256",
              "name": "id",
              "type": "uint256"
            },
            {
              "internalType": "bool",
              "name": "isReportPost",
              "type": "bool"
            },
            {
              "internalType": "bool",
              "name": "truth",
              "type": "bool"
            },
            {
              "internalType": "address payable",
              "name": "from",
              "type": "address"
            },
            {
              "internalType": "string",
              "name": "newsLang",
              "type": "string"
            },
            {
              "internalType": "uint32",
              "name": "tag",
              "type": "uint32"
            },
            {
              "internalType": "string",
              "name": "headline",
              "type": "string"
            },
            {
              "internalType": "string",
              "name": "content",
              "type": "string"
            },
            {
              "internalType": "uint256",
              "name": "timestamp",
              "type": "uint256"
            },
            {
              "internalType": "uint256",
              "name": "rating",
              "type": "uint256"
            },
            {
              "internalType": "uint32",
              "name": "interactions",
              "type": "uint32"
            },
            {
              "internalType": "uint256[]",
              "name": "reports",
              "type": "uint256[]"
            }
          ],
          "indexed": false,
          "internalType": "struct Article.Post",
          "name": "post",
          "type": "tuple"
        }
      ],
      "name": "viewPost",
      "type": "event"
    },
    {
      "stateMutability": "payable",
      "type": "fallback"
    },
    {
      "inputs": [
        {
          "internalType": "uint256",
          "name": "",
          "type": "uint256"
        },
        {
          "internalType": "uint256",
          "name": "",
          "type": "uint256"
        }
      ],
      "name": "Posts",
      "outputs": [
        {
          "internalType": "uint256",
          "name": "id",
          "type": "uint256"
        },
        {
          "internalType": "bool",
          "name": "isReportPost",
          "type": "bool"
        },
        {
          "internalType": "bool",
          "name": "truth",
          "type": "bool"
        },
        {
          "internalType": "address payable",
          "name": "from",
          "type": "address"
        },
        {
          "internalType": "string",
          "name": "newsLang",
          "type": "string"
        },
        {
          "internalType": "uint32",
          "name": "tag",
          "type": "uint32"
        },
        {
          "internalType": "string",
          "name": "headline",
          "type": "string"
        },
        {
          "internalType": "string",
          "name": "content",
          "type": "string"
        },
        {
          "internalType": "uint256",
          "name": "timestamp",
          "type": "uint256"
        },
        {
          "internalType": "uint256",
          "name": "rating",
          "type": "uint256"
        },
        {
          "internalType": "uint32",
          "name": "interactions",
          "type": "uint32"
        }
      ],
      "stateMutability": "view",
      "type": "function"
    },
    {
      "inputs": [
        {
          "internalType": "uint256",
          "name": "",
          "type": "uint256"
        }
      ],
      "name": "Reports",
      "outputs": [
        {
          "internalType": "uint256",
          "name": "id",
          "type": "uint256"
        },
        {
          "internalType": "bool",
          "name": "isArchived",
          "type": "bool"
        },
        {
          "internalType": "uint8",
          "name": "reportPostTag",
          "type": "uint8"
        },
        {
          "internalType": "uint256",
          "name": "reportPostID",
          "type": "uint256"
        }
      ],
      "stateMutability": "view",
      "type": "function"
    },
    {
      "inputs": [
        {
          "internalType": "uint256",
          "name": "id",
          "type": "uint256"
        }
      ],
      "name": "confirmReport",
      "outputs": [],
      "stateMutability": "nonpayable",
      "type": "function"
    },
    {
      "inputs": [
        {
          "internalType": "uint256",
          "name": "id",
          "type": "uint256"
        },
        {
          "internalType": "uint32",
          "name": "tag",
          "type": "uint32"
        }
      ],
      "name": "getPostByID",
      "outputs": [
        {
          "components": [
            {
              "internalType": "uint256",
              "name": "id",
              "type": "uint256"
            },
            {
              "internalType": "bool",
              "name": "isReportPost",
              "type": "bool"
            },
            {
              "internalType": "bool",
              "name": "truth",
              "type": "bool"
            },
            {
              "internalType": "address payable",
              "name": "from",
              "type": "address"
            },
            {
              "internalType": "string",
              "name": "newsLang",
              "type": "string"
            },
            {
              "internalType": "uint32",
              "name": "tag",
              "type": "uint32"
            },
            {
              "internalType": "string",
              "name": "headline",
              "type": "string"
            },
            {
              "internalType": "string",
              "name": "content",
              "type": "string"
            },
            {
              "internalType": "uint256",
              "name": "timestamp",
              "type": "uint256"
            },
            {
              "internalType": "uint256",
              "name": "rating",
              "type": "uint256"
            },
            {
              "internalType": "uint32",
              "name": "interactions",
              "type": "uint32"
            },
            {
              "internalType": "uint256[]",
              "name": "reports",
              "type": "uint256[]"
            }
          ],
          "internalType": "struct Article.Post",
          "name": "result",
          "type": "tuple"
        }
      ],
      "stateMutability": "view",
      "type": "function"
    },
    {
      "inputs": [
        {
          "internalType": "uint32",
          "name": "tag",
          "type": "uint32"
        }
      ],
      "name": "getPostByTag",
      "outputs": [
        {
          "components": [
            {
              "internalType": "uint256",
              "name": "id",
              "type": "uint256"
            },
            {
              "internalType": "bool",
              "name": "isReportPost",
              "type": "bool"
            },
            {
              "internalType": "bool",
              "name": "truth",
              "type": "bool"
            },
            {
              "internalType": "address payable",
              "name": "from",
              "type": "address"
            },
            {
              "internalType": "string",
              "name": "newsLang",
              "type": "string"
            },
            {
              "internalType": "uint32",
              "name": "tag",
              "type": "uint32"
            },
            {
              "internalType": "string",
              "name": "headline",
              "type": "string"
            },
            {
              "internalType": "string",
              "name": "content",
              "type": "string"
            },
            {
              "internalType": "uint256",
              "name": "timestamp",
              "type": "uint256"
            },
            {
              "internalType": "uint256",
              "name": "rating",
              "type": "uint256"
            },
            {
              "internalType": "uint32",
              "name": "interactions",
              "type": "uint32"
            },
            {
              "internalType": "uint256[]",
              "name": "reports",
              "type": "uint256[]"
            }
          ],
          "internalType": "struct Article.Post",
          "name": "",
          "type": "tuple"
        }
      ],
      "stateMutability": "nonpayable",
      "type": "function"
    },
    {
      "inputs": [
        {
          "internalType": "address payable",
          "name": "from",
          "type": "address"
        },
        {
          "internalType": "string",
          "name": "newsLang",
          "type": "string"
        },
        {
          "internalType": "uint32",
          "name": "tag",
          "type": "uint32"
        },
        {
          "internalType": "string",
          "name": "headline",
          "type": "string"
        },
        {
          "internalType": "string",
          "name": "content",
          "type": "string"
        },
        {
          "internalType": "uint256",
          "name": "rating",
          "type": "uint256"
        }
      ],
      "name": "postArticle",
      "outputs": [
        {
          "internalType": "uint256",
          "name": "id",
          "type": "uint256"
        }
      ],
      "stateMutability": "nonpayable",
      "type": "function"
    },
    {
      "inputs": [
        {
          "internalType": "uint256",
          "name": "",
          "type": "uint256"
        }
      ],
      "name": "postCount",
      "outputs": [
        {
          "internalType": "uint256",
          "name": "",
          "type": "uint256"
        }
      ],
      "stateMutability": "view",
      "type": "function"
    },
    {
      "inputs": [
        {
          "internalType": "uint256",
          "name": "id",
          "type": "uint256"
        }
      ],
      "name": "refuteReport",
      "outputs": [],
      "stateMutability": "nonpayable",
      "type": "function"
    },
    {
      "inputs": [
        {
          "internalType": "uint8",
          "name": "reportPostTag",
          "type": "uint8"
        },
        {
          "internalType": "uint256",
          "name": "reportPostID",
          "type": "uint256"
        },
        {
          "internalType": "address payable",
          "name": "from",
          "type": "address"
        },
        {
          "internalType": "string",
          "name": "newsLang",
          "type": "string"
        },
        {
          "internalType": "string",
          "name": "headline",
          "type": "string"
        },
        {
          "internalType": "string",
          "name": "content",
          "type": "string"
        },
        {
          "internalType": "uint256",
          "name": "rating",
          "type": "uint256"
        }
      ],
      "name": "reportArticle",
      "outputs": [],
      "stateMutability": "nonpayable",
      "type": "function"
    },
    {
      "inputs": [],
      "name": "reportCount",
      "outputs": [
        {
          "internalType": "uint256",
          "name": "",
          "type": "uint256"
        }
      ],
      "stateMutability": "view",
      "type": "function"
    },
    {
      "inputs": [
        {
          "internalType": "uint256",
          "name": "id",
          "type": "uint256"
        }
      ],
      "name": "viewConfirmations",
      "outputs": [
        {
          "internalType": "address[]",
          "name": "",
          "type": "address[]"
        }
      ],
      "stateMutability": "view",
      "type": "function"
    },
    {
      "inputs": [
        {
          "internalType": "uint256",
          "name": "id",
          "type": "uint256"
        },
        {
          "internalType": "uint32",
          "name": "tag",
          "type": "uint32"
        }
      ],
      "name": "withdraw",
      "outputs": [],
      "stateMutability": "payable",
      "type": "function"
    },
    {
      "stateMutability": "payable",
      "type": "receive"
    }
  ],
  "bytecode": "0x60806040526000600855620f424060095564e8d4a51000600a55336000806101000a81548173ffffffffffffffffffffffffffffffffffffffff021916908373ffffffffffffffffffffffffffffffffffffffff1602179055506137f2806100686000396000f3fe6080604052600436106100ab5760003560e01c8063467f2cd811610064578063467f2cd8146102065780636145d1b714610246578063bd02574914610262578063e6876ecc1461028b578063f25060d2146102b4578063f86c27d3146102f1576100b2565b80630e07f901146100b45780630f6b75d6146100dd5780630fabb8a81461011a578063185c6f8414610157578063284837881461018257806345c55e47146101bf576100b2565b366100b257005b005b3480156100c057600080fd5b506100db60048036038101906100d691906123d4565b61032e565b005b3480156100e957600080fd5b5061010460048036038101906100ff91906123d4565b610579565b60405161011191906124f1565b60405180910390f35b34801561012657600080fd5b50610141600480360381019061013c91906126d3565b61061d565b60405161014e91906127c3565b60405180910390f35b34801561016357600080fd5b5061016c6109fb565b60405161017991906127c3565b60405180910390f35b34801561018e57600080fd5b506101a960048036038101906101a491906123d4565b610a01565b6040516101b691906127c3565b60405180910390f35b3480156101cb57600080fd5b506101e660048036038101906101e191906127de565b610a1c565b6040516101fd9b9a999897969594939291906128d6565b60405180910390f35b34801561021257600080fd5b5061022d600480360381019061022891906123d4565b610c78565b60405161023d94939291906129b2565b60405180910390f35b610260600480360381019061025b91906129f7565b610cc2565b005b34801561026e57600080fd5b5061028960048036038101906102849190612a63565b6111bd565b005b34801561029757600080fd5b506102b260048036038101906102ad91906123d4565b6116aa565b005b3480156102c057600080fd5b506102db60048036038101906102d691906129f7565b61192a565b6040516102e89190612da7565b60405180910390f35b3480156102fd57600080fd5b5061031860048036038101906103139190612dc9565b611ce0565b6040516103259190612da7565b60405180910390f35b6103d233601260008481526020019081526020016000206004018054806020026020016040519081016040528092919081815260200182805480156103c857602002820191906000526020600020905b8160009054906101000a900473ffffffffffffffffffffffffffffffffffffffff1673ffffffffffffffffffffffffffffffffffffffff168152602001906001019080831161037e575b505050505061217c565b156103dc57600080fd5b60126000828152602001908152602001600020600401339080600181540180825580915050600190039060005260206000200160009091909190916101000a81548173ffffffffffffffffffffffffffffffffffffffff021916908373ffffffffffffffffffffffffffffffffffffffff160217905550600a601260008381526020019081526020016000206004018054905003610576576000600b60006007811061048b5761048a612df6565b5b01600083815260200190815260200160002060080160009054906101000a900463ffffffff1663ffffffff16600a546104c49190612e54565b90507fec7a6d51f9e94386ae3c020b954f8b4aabd4ec48d601a0ec75197fc24a74b602600083836040516104fa93929190612edb565b60405180910390a16000600b60006007811061051957610518612df6565b5b01600084815260200190815260200160002060010160016101000a81548160ff02191690831515021790555060016012600084815260200190815260200160002060010160006101000a81548160ff021916908315150217905550505b50565b60606012600083815260200190815260200160002060030180548060200260200160405190810160405280929190818152602001828054801561061157602002820191906000526020600020905b8160009054906101000a900473ffffffffffffffffffffffffffffffffffffffff1673ffffffffffffffffffffffffffffffffffffffff16815260200190600101908083116105c7575b50505050509050919050565b6000600763ffffffff168563ffffffff16108015610642575060008563ffffffff1610155b610681576040517f08c379a000000000000000000000000000000000000000000000000000000000815260040161067890612f5e565b60405180910390fd5b60405180610180016040528060018763ffffffff16600781106106a7576106a6612df6565b5b015481526020016000151581526020016001151581526020018873ffffffffffffffffffffffffffffffffffffffff1681526020018781526020018663ffffffff168152602001858152602001848152602001428152602001838152602001600063ffffffff168152602001600a67ffffffffffffffff81111561072e5761072d61256c565b5b60405190808252806020026020018201604052801561075c5781602001602082028036833780820191505090505b50815250600b8663ffffffff166007811061077a57610779612df6565b5b01600060018863ffffffff166007811061079757610796612df6565b5b015481526020019081526020016000206000820151816000015560208201518160010160006101000a81548160ff02191690831515021790555060408201518160010160016101000a81548160ff02191690831515021790555060608201518160010160026101000a81548173ffffffffffffffffffffffffffffffffffffffff021916908373ffffffffffffffffffffffffffffffffffffffff160217905550608082015181600201908161084d9190613180565b5060a08201518160030160006101000a81548163ffffffff021916908363ffffffff16021790555060c082015181600401908161088a9190613180565b5060e08201518160050190816108a09190613180565b50610100820151816006015561012082015181600701556101408201518160080160006101000a81548163ffffffff021916908363ffffffff1602179055506101608201518160090190805190602001906108fc92919061220f565b5090505060018563ffffffff166007811061091a57610919612df6565b5b01600081548092919061092c90613252565b91905055508463ffffffff168660405161094691906132d6565b60405180910390208873ffffffffffffffffffffffffffffffffffffffff167f4b72fd22411255fb6c0ab60c7ea7c4a84ff441285ba1eeafcfce60404bba9ac16001808a63ffffffff16600781106109a1576109a0612df6565b5b01546109ad91906132ed565b8888426040516109c09493929190613321565b60405180910390a46001808663ffffffff16600781106109e3576109e2612df6565b5b01546109ef91906132ed565b90509695505050505050565b60085481565b60018160078110610a1157600080fd5b016000915090505481565b600b8260078110610a2c57600080fd5b01602052806000526040600020600091509150508060000154908060010160009054906101000a900460ff16908060010160019054906101000a900460ff16908060010160029054906101000a900473ffffffffffffffffffffffffffffffffffffffff1690806002018054610aa190612fad565b80601f0160208091040260200160405190810160405280929190818152602001828054610acd90612fad565b8015610b1a5780601f10610aef57610100808354040283529160200191610b1a565b820191906000526020600020905b815481529060010190602001808311610afd57829003601f168201915b5050505050908060030160009054906101000a900463ffffffff1690806004018054610b4590612fad565b80601f0160208091040260200160405190810160405280929190818152602001828054610b7190612fad565b8015610bbe5780601f10610b9357610100808354040283529160200191610bbe565b820191906000526020600020905b815481529060010190602001808311610ba157829003601f168201915b505050505090806005018054610bd390612fad565b80601f0160208091040260200160405190810160405280929190818152602001828054610bff90612fad565b8015610c4c5780601f10610c2157610100808354040283529160200191610c4c565b820191906000526020600020905b815481529060010190602001808311610c2f57829003601f168201915b5050505050908060060154908060070154908060080160009054906101000a900463ffffffff1690508b565b60126020528060005260406000206000915090508060000154908060010160009054906101000a900460ff16908060010160019054906101000a900460ff16908060020154905084565b6000600b8263ffffffff1660078110610cde57610cdd612df6565b5b01600084815260200190815260200160002060405180610180016040529081600082015481526020016001820160009054906101000a900460ff161515151581526020016001820160019054906101000a900460ff161515151581526020016001820160029054906101000a900473ffffffffffffffffffffffffffffffffffffffff1673ffffffffffffffffffffffffffffffffffffffff1673ffffffffffffffffffffffffffffffffffffffff168152602001600282018054610da290612fad565b80601f0160208091040260200160405190810160405280929190818152602001828054610dce90612fad565b8015610e1b5780601f10610df057610100808354040283529160200191610e1b565b820191906000526020600020905b815481529060010190602001808311610dfe57829003601f168201915b505050505081526020016003820160009054906101000a900463ffffffff1663ffffffff1663ffffffff168152602001600482018054610e5a90612fad565b80601f0160208091040260200160405190810160405280929190818152602001828054610e8690612fad565b8015610ed35780601f10610ea857610100808354040283529160200191610ed3565b820191906000526020600020905b815481529060010190602001808311610eb657829003601f168201915b50505050508152602001600582018054610eec90612fad565b80601f0160208091040260200160405190810160405280929190818152602001828054610f1890612fad565b8015610f655780601f10610f3a57610100808354040283529160200191610f65565b820191906000526020600020905b815481529060010190602001808311610f4857829003601f168201915b5050505050815260200160068201548152602001600782015481526020016008820160009054906101000a900463ffffffff1663ffffffff1663ffffffff16815260200160098201805480602002602001604051908101604052809291908181526020018280548015610ff757602002820191906000526020600020905b815481526020019060010190808311610fe3575b50505050508152505090503373ffffffffffffffffffffffffffffffffffffffff16816060015173ffffffffffffffffffffffffffffffffffffffff1614611074576040517f08c379a000000000000000000000000000000000000000000000000000000000815260040161106b906133e6565b60405180910390fd5b600b8263ffffffff166007811061108e5761108d612df6565b5b01600084815260200190815260200160002060010160019054906101000a900460ff166110f0576040517f08c379a00000000000000000000000000000000000000000000000000000000081526004016110e790613452565b60405180910390fd5b600b8263ffffffff166007811061110a57611109612df6565b5b01600084815260200190815260200160002060010160029054906101000a900473ffffffffffffffffffffffffffffffffffffffff1673ffffffffffffffffffffffffffffffffffffffff166108fc60095483610140015163ffffffff166111729190612e54565b9081150290604051600060405180830381858888f1935050505015801561119d573d6000803e3d6000fd5b50600081610140019063ffffffff16908163ffffffff1681525050505050565b630510ff408111611203576040517f08c379a00000000000000000000000000000000000000000000000000000000081526004016111fa906134be565b60405180910390fd5b60405180610180016040528060085481526020016001151581526020016001151581526020018673ffffffffffffffffffffffffffffffffffffffff168152602001858152602001600063ffffffff168152602001848152602001838152602001428152602001828152602001600063ffffffff168152602001600a67ffffffffffffffff8111156112985761129761256c565b5b6040519080825280602002602001820160405280156112c65781602001602082028036833780820191505090505b50815250600b6000600781106112df576112de612df6565b5b01600060085481526020019081526020016000206000820151816000015560208201518160010160006101000a81548160ff02191690831515021790555060408201518160010160016101000a81548160ff02191690831515021790555060608201518160010160026101000a81548173ffffffffffffffffffffffffffffffffffffffff021916908373ffffffffffffffffffffffffffffffffffffffff16021790555060808201518160020190816113999190613180565b5060a08201518160030160006101000a81548163ffffffff021916908363ffffffff16021790555060c08201518160040190816113d69190613180565b5060e08201518160050190816113ec9190613180565b50610100820151816006015561012082015181600701556101408201518160080160006101000a81548163ffffffff021916908363ffffffff16021790555061016082015181600901908051906020019061144892919061220f565b509050506040518060c0016040528060085481526020016000151581526020018860ff168152602001878152602001600067ffffffffffffffff8111156114925761149161256c565b5b6040519080825280602002602001820160405280156114c05781602001602082028036833780820191505090505b508152602001600067ffffffffffffffff8111156114e1576114e061256c565b5b60405190808252806020026020018201604052801561150f5781602001602082028036833780820191505090505b508152506012600060085481526020019081526020016000206000820151816000015560208201518160010160006101000a81548160ff02191690831515021790555060408201518160010160016101000a81548160ff021916908360ff16021790555060608201518160020155608082015181600301908051906020019061159992919061225c565b5060a08201518160040190805190602001906115b692919061225c565b50905050600b8760ff16600781106115d1576115d0612df6565b5b01600087815260200190815260200160002060090160085490806001815401808255809150506001900390600052602060002001600090919091909150556008600081548092919061162290613252565b919050555060008460405161163791906132d6565b60405180910390208673ffffffffffffffffffffffffffffffffffffffff167f4b72fd22411255fb6c0ab60c7ea7c4a84ff441285ba1eeafcfce60404bba9ac1600160085461168691906132ed565b8787426040516116999493929190613321565b60405180910390a450505050505050565b6012600082815260200190815260200160002060010160009054906101000a900460ff161561170e576040517f08c379a00000000000000000000000000000000000000000000000000000000081526004016117059061352a565b60405180910390fd5b60126000828152602001908152602001600020600301339080600181540180825580915050600190039060005260206000200160009091909190916101000a81548173ffffffffffffffffffffffffffffffffffffffff021916908373ffffffffffffffffffffffffffffffffffffffff160217905550600a601260008381526020019081526020016000206003018054905003611927576000600b6012600084815260200190815260200160002060010160019054906101000a900460ff1660ff16600781106117e2576117e1612df6565b5b0160006012600085815260200190815260200160002060020154815260200190815260200160002060080160009054906101000a900463ffffffff1663ffffffff16600a546118319190612e54565b90507fec7a6d51f9e94386ae3c020b954f8b4aabd4ec48d601a0ec75197fc24a74b6026012600084815260200190815260200160002060010160019054906101000a900460ff1660126000858152602001908152602001600020600201548360405161189f9392919061357b565b60405180910390a16000600b6012600085815260200190815260200160002060010160019054906101000a900460ff1660ff16600781106118e3576118e2612df6565b5b0160006012600086815260200190815260200160002060020154815260200190815260200160002060010160016101000a81548160ff021916908315150217905550505b50565b6119326122e6565b6000831015801561195d575060018263ffffffff166007811061195857611957612df6565b5b015483105b61199c576040517f08c379a0000000000000000000000000000000000000000000000000000000008152600401611993906135fe565b60405180910390fd5b600b8263ffffffff16600781106119b6576119b5612df6565b5b01600084815260200190815260200160002060405180610180016040529081600082015481526020016001820160009054906101000a900460ff161515151581526020016001820160019054906101000a900460ff161515151581526020016001820160029054906101000a900473ffffffffffffffffffffffffffffffffffffffff1673ffffffffffffffffffffffffffffffffffffffff1673ffffffffffffffffffffffffffffffffffffffff168152602001600282018054611a7a90612fad565b80601f0160208091040260200160405190810160405280929190818152602001828054611aa690612fad565b8015611af35780601f10611ac857610100808354040283529160200191611af3565b820191906000526020600020905b815481529060010190602001808311611ad657829003601f168201915b505050505081526020016003820160009054906101000a900463ffffffff1663ffffffff1663ffffffff168152602001600482018054611b3290612fad565b80601f0160208091040260200160405190810160405280929190818152602001828054611b5e90612fad565b8015611bab5780601f10611b8057610100808354040283529160200191611bab565b820191906000526020600020905b815481529060010190602001808311611b8e57829003601f168201915b50505050508152602001600582018054611bc490612fad565b80601f0160208091040260200160405190810160405280929190818152602001828054611bf090612fad565b8015611c3d5780601f10611c1257610100808354040283529160200191611c3d565b820191906000526020600020905b815481529060010190602001808311611c2057829003601f168201915b5050505050815260200160068201548152602001600782015481526020016008820160009054906101000a900463ffffffff1663ffffffff1663ffffffff16815260200160098201805480602002602001604051908101604052809291908181526020018280548015611ccf57602002820191906000526020600020905b815481526020019060010190808311611cbb575b505050505081525050905092915050565b611ce86122e6565b600763ffffffff168263ffffffff16108015611d0b575060008263ffffffff1610155b611d4a576040517f08c379a0000000000000000000000000000000000000000000000000000000008152600401611d419061366a565b60405180910390fd5b600060018363ffffffff1660078110611d6657611d65612df6565b5b015411611d7257600080fd5b600060018363ffffffff1660078110611d8e57611d8d612df6565b5b0154424433604051602001611da5939291906136f3565b6040516020818303038152906040528051906020012060001c611dc8919061375f565b9050600b8363ffffffff1660078110611de457611de3612df6565b5b016000828152602001908152602001600020600801600081819054906101000a900463ffffffff1680929190611e1990613790565b91906101000a81548163ffffffff021916908363ffffffff16021790555050600b8363ffffffff1660078110611e5257611e51612df6565b5b01600082815260200190815260200160002060405180610180016040529081600082015481526020016001820160009054906101000a900460ff161515151581526020016001820160019054906101000a900460ff161515151581526020016001820160029054906101000a900473ffffffffffffffffffffffffffffffffffffffff1673ffffffffffffffffffffffffffffffffffffffff1673ffffffffffffffffffffffffffffffffffffffff168152602001600282018054611f1690612fad565b80601f0160208091040260200160405190810160405280929190818152602001828054611f4290612fad565b8015611f8f5780601f10611f6457610100808354040283529160200191611f8f565b820191906000526020600020905b815481529060010190602001808311611f7257829003601f168201915b505050505081526020016003820160009054906101000a900463ffffffff1663ffffffff1663ffffffff168152602001600482018054611fce90612fad565b80601f0160208091040260200160405190810160405280929190818152602001828054611ffa90612fad565b80156120475780601f1061201c57610100808354040283529160200191612047565b820191906000526020600020905b81548152906001019060200180831161202a57829003601f168201915b5050505050815260200160058201805461206090612fad565b80601f016020809104026020016040519081016040528092919081815260200182805461208c90612fad565b80156120d95780601f106120ae576101008083540402835291602001916120d9565b820191906000526020600020905b8154815290600101906020018083116120bc57829003601f168201915b5050505050815260200160068201548152602001600782015481526020016008820160009054906101000a900463ffffffff1663ffffffff1663ffffffff1681526020016009820180548060200260200160405190810160405280929190818152602001828054801561216b57602002820191906000526020600020905b815481526020019060010190808311612157575b505050505081525050915050919050565b600080600090505b82518163ffffffff16101561220357828163ffffffff16815181106121ac576121ab612df6565b5b602002602001015173ffffffffffffffffffffffffffffffffffffffff168473ffffffffffffffffffffffffffffffffffffffff16036121f0576001915050612209565b80806121fb90613790565b915050612184565b50600090505b92915050565b82805482825590600052602060002090810192821561224b579160200282015b8281111561224a57825182559160200191906001019061222f565b5b509050612258919061236d565b5090565b8280548282559060005260206000209081019282156122d5579160200282015b828111156122d45782518260006101000a81548173ffffffffffffffffffffffffffffffffffffffff021916908373ffffffffffffffffffffffffffffffffffffffff1602179055509160200191906001019061227c565b5b5090506122e2919061236d565b5090565b60405180610180016040528060008152602001600015158152602001600015158152602001600073ffffffffffffffffffffffffffffffffffffffff16815260200160608152602001600063ffffffff16815260200160608152602001606081526020016000815260200160008152602001600063ffffffff168152602001606081525090565b5b8082111561238657600081600090555060010161236e565b5090565b6000604051905090565b600080fd5b600080fd5b6000819050919050565b6123b18161239e565b81146123bc57600080fd5b50565b6000813590506123ce816123a8565b92915050565b6000602082840312156123ea576123e9612394565b5b60006123f8848285016123bf565b91505092915050565b600081519050919050565b600082825260208201905092915050565b6000819050602082019050919050565b600073ffffffffffffffffffffffffffffffffffffffff82169050919050565b60006124588261242d565b9050919050565b6124688161244d565b82525050565b600061247a838361245f565b60208301905092915050565b6000602082019050919050565b600061249e82612401565b6124a8818561240c565b93506124b38361241d565b8060005b838110156124e45781516124cb888261246e565b97506124d683612486565b9250506001810190506124b7565b5085935050505092915050565b6000602082019050818103600083015261250b8184612493565b905092915050565b600061251e8261242d565b9050919050565b61252e81612513565b811461253957600080fd5b50565b60008135905061254b81612525565b92915050565b600080fd5b600080fd5b6000601f19601f8301169050919050565b7f4e487b7100000000000000000000000000000000000000000000000000000000600052604160045260246000fd5b6125a48261255b565b810181811067ffffffffffffffff821117156125c3576125c261256c565b5b80604052505050565b60006125d661238a565b90506125e2828261259b565b919050565b600067ffffffffffffffff8211156126025761260161256c565b5b61260b8261255b565b9050602081019050919050565b82818337600083830152505050565b600061263a612635846125e7565b6125cc565b90508281526020810184848401111561265657612655612556565b5b612661848285612618565b509392505050565b600082601f83011261267e5761267d612551565b5b813561268e848260208601612627565b91505092915050565b600063ffffffff82169050919050565b6126b081612697565b81146126bb57600080fd5b50565b6000813590506126cd816126a7565b92915050565b60008060008060008060c087890312156126f0576126ef612394565b5b60006126fe89828a0161253c565b965050602087013567ffffffffffffffff81111561271f5761271e612399565b5b61272b89828a01612669565b955050604061273c89828a016126be565b945050606087013567ffffffffffffffff81111561275d5761275c612399565b5b61276989828a01612669565b935050608087013567ffffffffffffffff81111561278a57612789612399565b5b61279689828a01612669565b92505060a06127a789828a016123bf565b9150509295509295509295565b6127bd8161239e565b82525050565b60006020820190506127d860008301846127b4565b92915050565b600080604083850312156127f5576127f4612394565b5b6000612803858286016123bf565b9250506020612814858286016123bf565b9150509250929050565b60008115159050919050565b6128338161281e565b82525050565b61284281612513565b82525050565b600081519050919050565b600082825260208201905092915050565b60005b83811015612882578082015181840152602081019050612867565b60008484015250505050565b600061289982612848565b6128a38185612853565b93506128b3818560208601612864565b6128bc8161255b565b840191505092915050565b6128d081612697565b82525050565b6000610160820190506128ec600083018e6127b4565b6128f9602083018d61282a565b612906604083018c61282a565b612913606083018b612839565b8181036080830152612925818a61288e565b905061293460a08301896128c7565b81810360c0830152612946818861288e565b905081810360e083015261295a818761288e565b905061296a6101008301866127b4565b6129786101208301856127b4565b6129866101408301846128c7565b9c9b505050505050505050505050565b600060ff82169050919050565b6129ac81612996565b82525050565b60006080820190506129c760008301876127b4565b6129d4602083018661282a565b6129e160408301856129a3565b6129ee60608301846127b4565b95945050505050565b60008060408385031215612a0e57612a0d612394565b5b6000612a1c858286016123bf565b9250506020612a2d858286016126be565b9150509250929050565b612a4081612996565b8114612a4b57600080fd5b50565b600081359050612a5d81612a37565b92915050565b600080600080600080600060e0888a031215612a8257612a81612394565b5b6000612a908a828b01612a4e565b9750506020612aa18a828b016123bf565b9650506040612ab28a828b0161253c565b955050606088013567ffffffffffffffff811115612ad357612ad2612399565b5b612adf8a828b01612669565b945050608088013567ffffffffffffffff811115612b0057612aff612399565b5b612b0c8a828b01612669565b93505060a088013567ffffffffffffffff811115612b2d57612b2c612399565b5b612b398a828b01612669565b92505060c0612b4a8a828b016123bf565b91505092959891949750929550565b612b628161239e565b82525050565b612b718161281e565b82525050565b612b8081612513565b82525050565b600082825260208201905092915050565b6000612ba282612848565b612bac8185612b86565b9350612bbc818560208601612864565b612bc58161255b565b840191505092915050565b612bd981612697565b82525050565b600081519050919050565b600082825260208201905092915050565b6000819050602082019050919050565b6000612c178383612b59565b60208301905092915050565b6000602082019050919050565b6000612c3b82612bdf565b612c458185612bea565b9350612c5083612bfb565b8060005b83811015612c81578151612c688882612c0b565b9750612c7383612c23565b925050600181019050612c54565b5085935050505092915050565b600061018083016000830151612ca76000860182612b59565b506020830151612cba6020860182612b68565b506040830151612ccd6040860182612b68565b506060830151612ce06060860182612b77565b5060808301518482036080860152612cf88282612b97565b91505060a0830151612d0d60a0860182612bd0565b5060c083015184820360c0860152612d258282612b97565b91505060e083015184820360e0860152612d3f8282612b97565b915050610100830151612d56610100860182612b59565b50610120830151612d6b610120860182612b59565b50610140830151612d80610140860182612bd0565b50610160830151848203610160860152612d9a8282612c30565b9150508091505092915050565b60006020820190508181036000830152612dc18184612c8e565b905092915050565b600060208284031215612ddf57612dde612394565b5b6000612ded848285016126be565b91505092915050565b7f4e487b7100000000000000000000000000000000000000000000000000000000600052603260045260246000fd5b7f4e487b7100000000000000000000000000000000000000000000000000000000600052601160045260246000fd5b6000612e5f8261239e565b9150612e6a8361239e565b9250828202612e788161239e565b91508282048414831517612e8f57612e8e612e25565b5b5092915050565b6000819050919050565b6000819050919050565b6000612ec5612ec0612ebb84612e96565b612ea0565b612697565b9050919050565b612ed581612eaa565b82525050565b6000606082019050612ef06000830186612ecc565b612efd60208301856127b4565b612f0a60408301846127b4565b949350505050565b7f4976616c69642074616700000000000000000000000000000000000000000000600082015250565b6000612f48600a83612853565b9150612f5382612f12565b602082019050919050565b60006020820190508181036000830152612f7781612f3b565b9050919050565b7f4e487b7100000000000000000000000000000000000000000000000000000000600052602260045260246000fd5b60006002820490506001821680612fc557607f821691505b602082108103612fd857612fd7612f7e565b5b50919050565b60008190508160005260206000209050919050565b60006020601f8301049050919050565b600082821b905092915050565b6000600883026130407fffffffffffffffffffffffffffffffffffffffffffffffffffffffffffffffff82613003565b61304a8683613003565b95508019841693508086168417925050509392505050565b600061307d6130786130738461239e565b612ea0565b61239e565b9050919050565b6000819050919050565b61309783613062565b6130ab6130a382613084565b848454613010565b825550505050565b600090565b6130c06130b3565b6130cb81848461308e565b505050565b5b818110156130ef576130e46000826130b8565b6001810190506130d1565b5050565b601f8211156131345761310581612fde565b61310e84612ff3565b8101602085101561311d578190505b61313161312985612ff3565b8301826130d0565b50505b505050565b600082821c905092915050565b600061315760001984600802613139565b1980831691505092915050565b60006131708383613146565b9150826002028217905092915050565b61318982612848565b67ffffffffffffffff8111156131a2576131a161256c565b5b6131ac8254612fad565b6131b78282856130f3565b600060209050601f8311600181146131ea57600084156131d8578287015190505b6131e28582613164565b86555061324a565b601f1984166131f886612fde565b60005b82811015613220578489015182556001820191506020850194506020810190506131fb565b8683101561323d5784890151613239601f891682613146565b8355505b6001600288020188555050505b505050505050565b600061325d8261239e565b91507fffffffffffffffffffffffffffffffffffffffffffffffffffffffffffffffff820361328f5761328e612e25565b5b600182019050919050565b600081905092915050565b60006132b082612848565b6132ba818561329a565b93506132ca818560208601612864565b80840191505092915050565b60006132e282846132a5565b915081905092915050565b60006132f88261239e565b91506133038361239e565b925082820390508181111561331b5761331a612e25565b5b92915050565b600060808201905061333660008301876127b4565b8181036020830152613348818661288e565b9050818103604083015261335c818561288e565b905061336b60608301846127b4565b95945050505050565b7f596f7520617265206e6f7420746865206f776e6572206f66207468697320706f60008201527f7374000000000000000000000000000000000000000000000000000000000000602082015250565b60006133d0602283612853565b91506133db82613374565b604082019050919050565b600060208201905081810360008301526133ff816133c3565b9050919050565b7f5468697320706f737420686173206265656e20666c61676765642066616c7365600082015250565b600061343c602083612853565b915061344782613406565b602082019050919050565b6000602082019050818103600083015261346b8161342f565b9050919050565b7f526174696e67206d7573742062652067726561746572207468616e2038352500600082015250565b60006134a8601f83612853565b91506134b382613472565b602082019050919050565b600060208201905081810360008301526134d78161349b565b9050919050565b7f5265706f7274206973207265667574656420616e642061726368697665640000600082015250565b6000613514601e83612853565b915061351f826134de565b602082019050919050565b6000602082019050818103600083015261354381613507565b9050919050565b600061356561356061355b84612996565b612ea0565b612697565b9050919050565b6135758161354a565b82525050565b6000606082019050613590600083018661356c565b61359d60208301856127b4565b6135aa60408301846127b4565b949350505050565b7f496e76616c696420696e64696365730000000000000000000000000000000000600082015250565b60006135e8600f83612853565b91506135f3826135b2565b602082019050919050565b60006020820190508181036000830152613617816135db565b9050919050565b7f496e76616c696420746167000000000000000000000000000000000000000000600082015250565b6000613654600b83612853565b915061365f8261361e565b602082019050919050565b6000602082019050818103600083015261368381613647565b9050919050565b6000819050919050565b6136a56136a08261239e565b61368a565b82525050565b60008160601b9050919050565b60006136c3826136ab565b9050919050565b60006136d5826136b8565b9050919050565b6136ed6136e88261244d565b6136ca565b82525050565b60006136ff8286613694565b60208201915061370f8285613694565b60208201915061371f82846136dc565b601482019150819050949350505050565b7f4e487b7100000000000000000000000000000000000000000000000000000000600052601260045260246000fd5b600061376a8261239e565b91506137758361239e565b92508261378557613784613730565b5b828206905092915050565b600061379b82612697565b915063ffffffff82036137b1576137b0612e25565b5b60018201905091905056fea26469706673582212204a2b18df4dfd71ecc49fbc0cbd4f9b73b7fbd141f7ba5f790274b1e7b85d95be64736f6c63430008110033",
  "linkReferences": {},
  "deployedLinkReferences": {}
}