{
  "_format": "hh-sol-artifact-1",
  "contractName": "Article",
  "sourceName": "contracts/Article.sol",
  "abi": [
    {
      "anonymous": false,
      "inputs": [
        {
          "indexed": true,
          "internalType": "address",
          "name": "from",
          "type": "address"
        },
        {
          "indexed": true,
          "internalType": "string",
          "name": "newsLang",
          "type": "string"
        },
        {
          "indexed": true,
          "internalType": "uint32[]",
          "name": "tags",
          "type": "uint32[]"
        },
        {
          "indexed": false,
          "internalType": "string",
          "name": "headline",
          "type": "string"
        },
        {
          "indexed": false,
          "internalType": "string",
          "name": "content",
          "type": "string"
        },
        {
          "indexed": false,
          "internalType": "uint256",
          "name": "timestamp",
          "type": "uint256"
        }
      ],
      "name": "post",
      "type": "event"
    },
    {
      "inputs": [
        {
          "internalType": "uint256",
          "name": "",
          "type": "uint256"
        }
      ],
      "name": "Posts",
      "outputs": [
        {
          "internalType": "uint256",
          "name": "id",
          "type": "uint256"
        },
        {
          "internalType": "address",
          "name": "from",
          "type": "address"
        },
        {
          "internalType": "string",
          "name": "newsLang",
          "type": "string"
        },
        {
          "internalType": "string",
          "name": "headline",
          "type": "string"
        },
        {
          "internalType": "string",
          "name": "content",
          "type": "string"
        },
        {
          "internalType": "uint256",
          "name": "timestamp",
          "type": "uint256"
        }
      ],
      "stateMutability": "view",
      "type": "function"
    },
    {
      "inputs": [
        {
          "internalType": "uint32[]",
          "name": "tags",
          "type": "uint32[]"
        },
        {
          "internalType": "uint32",
          "name": "count",
          "type": "uint32"
        }
      ],
      "name": "getPostsByTags",
      "outputs": [
        {
          "components": [
            {
              "internalType": "uint256",
              "name": "id",
              "type": "uint256"
            },
            {
              "internalType": "address",
              "name": "from",
              "type": "address"
            },
            {
              "internalType": "string",
              "name": "newsLang",
              "type": "string"
            },
            {
              "internalType": "uint32[]",
              "name": "tags",
              "type": "uint32[]"
            },
            {
              "internalType": "string",
              "name": "headline",
              "type": "string"
            },
            {
              "internalType": "string",
              "name": "content",
              "type": "string"
            },
            {
              "internalType": "uint256",
              "name": "timestamp",
              "type": "uint256"
            }
          ],
          "internalType": "struct Article.Post[]",
          "name": "",
          "type": "tuple[]"
        }
      ],
      "stateMutability": "view",
      "type": "function"
    },
    {
      "inputs": [],
      "name": "postCount",
      "outputs": [
        {
          "internalType": "uint256",
          "name": "",
          "type": "uint256"
        }
      ],
      "stateMutability": "view",
      "type": "function"
    },
    {
      "inputs": [
        {
          "internalType": "address",
          "name": "from",
          "type": "address"
        },
        {
          "internalType": "string",
          "name": "newsLang",
          "type": "string"
        },
        {
          "internalType": "uint32[]",
          "name": "tags",
          "type": "uint32[]"
        },
        {
          "internalType": "string",
          "name": "headline",
          "type": "string"
        },
        {
          "internalType": "string",
          "name": "content",
          "type": "string"
        }
      ],
      "name": "postNewsArticle",
      "outputs": [],
      "stateMutability": "nonpayable",
      "type": "function"
    }
  ],
  "bytecode": "0x60806040526000805534801561001457600080fd5b50611806806100246000396000f3fe608060405234801561001057600080fd5b506004361061004c5760003560e01c806317906c2e146100515780634fafef1a1461006f57806386bad63f146100a4578063a6c01a53146100c0575b600080fd5b6100596100f0565b6040516100669190610a73565b60405180910390f35b61008960048036038101906100849190610ace565b6100f6565b60405161009b96959493929190610bcc565b60405180910390f35b6100be60048036038101906100b99190610ea7565b6102ea565b005b6100da60048036038101906100d59190610f92565b6104a2565b6040516100e79190611287565b60405180910390f35b60005481565b60016020528060005260406000206000915090508060000154908060010160009054906101000a900473ffffffffffffffffffffffffffffffffffffffff1690806002018054610145906112d8565b80601f0160208091040260200160405190810160405280929190818152602001828054610171906112d8565b80156101be5780601f10610193576101008083540402835291602001916101be565b820191906000526020600020905b8154815290600101906020018083116101a157829003601f168201915b5050505050908060040180546101d3906112d8565b80601f01602080910402602001604051908101604052809291908181526020018280546101ff906112d8565b801561024c5780601f106102215761010080835404028352916020019161024c565b820191906000526020600020905b81548152906001019060200180831161022f57829003601f168201915b505050505090806005018054610261906112d8565b80601f016020809104026020016040519081016040528092919081815260200182805461028d906112d8565b80156102da5780601f106102af576101008083540402835291602001916102da565b820191906000526020600020905b8154815290600101906020018083116102bd57829003601f168201915b5050505050908060060154905086565b6040518060e0016040528060005481526020018673ffffffffffffffffffffffffffffffffffffffff1681526020018581526020018481526020018381526020018281526020014281525060016000805481526020019081526020016000206000820151816000015560208201518160010160006101000a81548173ffffffffffffffffffffffffffffffffffffffff021916908373ffffffffffffffffffffffffffffffffffffffff16021790555060408201518160020190816103af91906114b5565b5060608201518160030190805190602001906103cc92919061093a565b5060808201518160040190816103e291906114b5565b5060a08201518160050190816103f891906114b5565b5060c08201518160060155905050600080815480929190610418906115b6565b91905055508260405161042b919061168e565b60405180910390208460405161044191906116e1565b60405180910390208673ffffffffffffffffffffffffffffffffffffffff167fa4b250ca3718ea9253976bd94e0b53ac321e91273587d95bf1cbc34f80f00c3e858542604051610493939291906116f8565b60405180910390a45050505050565b606060008263ffffffff1667ffffffffffffffff8111156104c6576104c5610c78565b5b6040519080825280602002602001820160405280156104ff57816020015b6104ec6109ea565b8152602001906001900390816104e45790505b5090506000805b6000548110801561052257508463ffffffff168263ffffffff16105b1561092e5760005b60016000838152602001908152602001600020600301805490508161ffff16101561091a57600080600160008581526020019081526020016000206003018361ffff168154811061057e5761057d61173d565b5b90600052602060002090600891828204019190066004029054906101000a900463ffffffff16905060005b89518161ffff16101561060357898161ffff16815181106105cd576105cc61173d565b5b602002602001015163ffffffff168263ffffffff16036105f05760019250610603565b80806105fb9061177a565b9150506105a9565b50811561090557600160008581526020019081526020016000206040518060e0016040529081600082015481526020016001820160009054906101000a900473ffffffffffffffffffffffffffffffffffffffff1673ffffffffffffffffffffffffffffffffffffffff1673ffffffffffffffffffffffffffffffffffffffff168152602001600282018054610698906112d8565b80601f01602080910402602001604051908101604052809291908181526020018280546106c4906112d8565b80156107115780601f106106e657610100808354040283529160200191610711565b820191906000526020600020905b8154815290600101906020018083116106f457829003601f168201915b505050505081526020016003820180548060200260200160405190810160405280929190818152602001828054801561079557602002820191906000526020600020906000905b82829054906101000a900463ffffffff1663ffffffff16815260200190600401906020826003010492830192600103820291508084116107585790505b505050505081526020016004820180546107ae906112d8565b80601f01602080910402602001604051908101604052809291908181526020018280546107da906112d8565b80156108275780601f106107fc57610100808354040283529160200191610827565b820191906000526020600020905b81548152906001019060200180831161080a57829003601f168201915b50505050508152602001600582018054610840906112d8565b80601f016020809104026020016040519081016040528092919081815260200182805461086c906112d8565b80156108b95780601f1061088e576101008083540402835291602001916108b9565b820191906000526020600020905b81548152906001019060200180831161089c57829003601f168201915b50505050508152602001600682015481525050868663ffffffff16815181106108e5576108e461173d565b5b602002602001018190525084806108fb906117a4565b955050505061091a565b505080806109129061177a565b91505061052a565b508080610926906115b6565b915050610506565b50819250505092915050565b828054828255906000526020600020906007016008900481019282156109d95791602002820160005b838211156109a757835183826101000a81548163ffffffff021916908363ffffffff1602179055509260200192600401602081600301049283019260010302610963565b80156109d75782816101000a81549063ffffffff02191690556004016020816003010492830192600103026109a7565b505b5090506109e69190610a3d565b5090565b6040518060e0016040528060008152602001600073ffffffffffffffffffffffffffffffffffffffff16815260200160608152602001606081526020016060815260200160608152602001600081525090565b5b80821115610a56576000816000905550600101610a3e565b5090565b6000819050919050565b610a6d81610a5a565b82525050565b6000602082019050610a886000830184610a64565b92915050565b6000604051905090565b600080fd5b600080fd5b610aab81610a5a565b8114610ab657600080fd5b50565b600081359050610ac881610aa2565b92915050565b600060208284031215610ae457610ae3610a98565b5b6000610af284828501610ab9565b91505092915050565b600073ffffffffffffffffffffffffffffffffffffffff82169050919050565b6000610b2682610afb565b9050919050565b610b3681610b1b565b82525050565b600081519050919050565b600082825260208201905092915050565b60005b83811015610b76578082015181840152602081019050610b5b565b60008484015250505050565b6000601f19601f8301169050919050565b6000610b9e82610b3c565b610ba88185610b47565b9350610bb8818560208601610b58565b610bc181610b82565b840191505092915050565b600060c082019050610be16000830189610a64565b610bee6020830188610b2d565b8181036040830152610c008187610b93565b90508181036060830152610c148186610b93565b90508181036080830152610c288185610b93565b9050610c3760a0830184610a64565b979650505050505050565b610c4b81610b1b565b8114610c5657600080fd5b50565b600081359050610c6881610c42565b92915050565b600080fd5b600080fd5b7f4e487b7100000000000000000000000000000000000000000000000000000000600052604160045260246000fd5b610cb082610b82565b810181811067ffffffffffffffff82111715610ccf57610cce610c78565b5b80604052505050565b6000610ce2610a8e565b9050610cee8282610ca7565b919050565b600067ffffffffffffffff821115610d0e57610d0d610c78565b5b610d1782610b82565b9050602081019050919050565b82818337600083830152505050565b6000610d46610d4184610cf3565b610cd8565b905082815260208101848484011115610d6257610d61610c73565b5b610d6d848285610d24565b509392505050565b600082601f830112610d8a57610d89610c6e565b5b8135610d9a848260208601610d33565b91505092915050565b600067ffffffffffffffff821115610dbe57610dbd610c78565b5b602082029050602081019050919050565b600080fd5b600063ffffffff82169050919050565b610ded81610dd4565b8114610df857600080fd5b50565b600081359050610e0a81610de4565b92915050565b6000610e23610e1e84610da3565b610cd8565b90508083825260208201905060208402830185811115610e4657610e45610dcf565b5b835b81811015610e6f5780610e5b8882610dfb565b845260208401935050602081019050610e48565b5050509392505050565b600082601f830112610e8e57610e8d610c6e565b5b8135610e9e848260208601610e10565b91505092915050565b600080600080600060a08688031215610ec357610ec2610a98565b5b6000610ed188828901610c59565b955050602086013567ffffffffffffffff811115610ef257610ef1610a9d565b5b610efe88828901610d75565b945050604086013567ffffffffffffffff811115610f1f57610f1e610a9d565b5b610f2b88828901610e79565b935050606086013567ffffffffffffffff811115610f4c57610f4b610a9d565b5b610f5888828901610d75565b925050608086013567ffffffffffffffff811115610f7957610f78610a9d565b5b610f8588828901610d75565b9150509295509295909350565b60008060408385031215610fa957610fa8610a98565b5b600083013567ffffffffffffffff811115610fc757610fc6610a9d565b5b610fd385828601610e79565b9250506020610fe485828601610dfb565b9150509250929050565b600081519050919050565b600082825260208201905092915050565b6000819050602082019050919050565b61102381610a5a565b82525050565b61103281610b1b565b82525050565b600082825260208201905092915050565b600061105482610b3c565b61105e8185611038565b935061106e818560208601610b58565b61107781610b82565b840191505092915050565b600081519050919050565b600082825260208201905092915050565b6000819050602082019050919050565b6110b781610dd4565b82525050565b60006110c983836110ae565b60208301905092915050565b6000602082019050919050565b60006110ed82611082565b6110f7818561108d565b93506111028361109e565b8060005b8381101561113357815161111a88826110bd565b9750611125836110d5565b925050600181019050611106565b5085935050505092915050565b600060e083016000830151611158600086018261101a565b50602083015161116b6020860182611029565b50604083015184820360408601526111838282611049565b9150506060830151848203606086015261119d82826110e2565b915050608083015184820360808601526111b78282611049565b91505060a083015184820360a08601526111d18282611049565b91505060c08301516111e660c086018261101a565b508091505092915050565b60006111fd8383611140565b905092915050565b6000602082019050919050565b600061121d82610fee565b6112278185610ff9565b9350836020820285016112398561100a565b8060005b85811015611275578484038952815161125685826111f1565b945061126183611205565b925060208a0199505060018101905061123d565b50829750879550505050505092915050565b600060208201905081810360008301526112a18184611212565b905092915050565b7f4e487b7100000000000000000000000000000000000000000000000000000000600052602260045260246000fd5b600060028204905060018216806112f057607f821691505b602082108103611303576113026112a9565b5b50919050565b60008190508160005260206000209050919050565b60006020601f8301049050919050565b600082821b905092915050565b60006008830261136b7fffffffffffffffffffffffffffffffffffffffffffffffffffffffffffffffff8261132e565b611375868361132e565b95508019841693508086168417925050509392505050565b6000819050919050565b60006113b26113ad6113a884610a5a565b61138d565b610a5a565b9050919050565b6000819050919050565b6113cc83611397565b6113e06113d8826113b9565b84845461133b565b825550505050565b600090565b6113f56113e8565b6114008184846113c3565b505050565b5b81811015611424576114196000826113ed565b600181019050611406565b5050565b601f8211156114695761143a81611309565b6114438461131e565b81016020851015611452578190505b61146661145e8561131e565b830182611405565b50505b505050565b600082821c905092915050565b600061148c6000198460080261146e565b1980831691505092915050565b60006114a5838361147b565b9150826002028217905092915050565b6114be82610b3c565b67ffffffffffffffff8111156114d7576114d6610c78565b5b6114e182546112d8565b6114ec828285611428565b600060209050601f83116001811461151f576000841561150d578287015190505b6115178582611499565b86555061157f565b601f19841661152d86611309565b60005b8281101561155557848901518255600182019150602085019450602081019050611530565b86831015611572578489015161156e601f89168261147b565b8355505b6001600288020188555050505b505050505050565b7f4e487b7100000000000000000000000000000000000000000000000000000000600052601160045260246000fd5b60006115c182610a5a565b91507fffffffffffffffffffffffffffffffffffffffffffffffffffffffffffffffff82036115f3576115f2611587565b5b600182019050919050565b600081905092915050565b61161281610dd4565b82525050565b60006116248383611609565b60208301905092915050565b600061163b82611082565b61164581856115fe565b93506116508361109e565b8060005b838110156116815781516116688882611618565b9750611673836110d5565b925050600181019050611654565b5085935050505092915050565b600061169a8284611630565b915081905092915050565b600081905092915050565b60006116bb82610b3c565b6116c581856116a5565b93506116d5818560208601610b58565b80840191505092915050565b60006116ed82846116b0565b915081905092915050565b600060608201905081810360008301526117128186610b93565b905081810360208301526117268185610b93565b90506117356040830184610a64565b949350505050565b7f4e487b7100000000000000000000000000000000000000000000000000000000600052603260045260246000fd5b600061ffff82169050919050565b60006117858261176c565b915061ffff820361179957611798611587565b5b600182019050919050565b60006117af82610dd4565b915063ffffffff82036117c5576117c4611587565b5b60018201905091905056fea2646970667358221220ac76d4dc44684107f8f66d052b460be776cbd450aa31e750607f28cb75854bf964736f6c63430008110033",
  "linkReferences": {},
  "deployedLinkReferences": {}
}